S00B000072616D2E73726563D9
S3150000000097410000938101B0970200009382821508
S3150000001073905230732440F163100402970200007B
S315000000209382421573905230EF10802E9702000093
S3150000003093824232E78002001313240097020000E5
S315000000409382420CB302530003A302000F00F00F89
S31500000050E31C03FE138E81D293133400B30E7E008D
S31500000060138F4E0083AF0E0003210F00970200008E
S315000000709382421073905230732540F1E7800F004F
S31500000080130000001300000013000000130000001E
S31500000090130000001300000013000000130000000E
S315000000A013000000130000001300000013000000FE
S315000000B013000000130000001300000013000000EE
S315000000C013000000130000001300000013000000DE
S315000000D013000000130000001300000013000000CE
S315000000E013000000130000001300000013000000BE
S315000000F013000000130000001300000013000000AE
S3150000010073001000730010007300100073001000DD
S3150000011073001000730010007300100073001000CD
S3150000012073001000730010007300100073001000BD
S3150000013073001000730010007300100073001000AD
S3150000014013132500970300009383C3FBB3027300C8
S315000001500F00500F2FA00208130500006780000053
S3150000016073001000130000001300000013000000CD
S3150000017073202034130181F723201100232431003A
S315000001802326410023285100232A6100232C7100D5
S31500000190232E8100232091022322A1022324B102CF
S315000001A02326C1022328D102232AE102232CF102AD
S315000001B0232E0103232011052322210523243105A3
S315000001C02326410523285105232A6105232C710581
S315000001D0232E8105232091072322A1072324B1077B
S315000001E02326C1072328D107232AE107232CF10759
S315000001F073250030F325103473262034232EA106F0
S315000002002320B1082322C10863560600EF10C01947
S315000002106F00C00093060100EF10801883200100D4
S31500000220832181000322C1008322010103234101AE
S31500000230832381010324C101832401020325410292
S31500000240832581020326C102832601030327410376
S31500000250832781030328C10383280104032941045A
S3150000026083298104032AC104832A0105032B41053E
S31500000270832B8105032CC105832C0106032D410622
S31500000280832D8106032EC106832E0107032FC10786
S31500000290832F010873100F3073901F34032F41070B
S315000002A0832F8107130181087300203000000000AE
S315000002B00000000000000000000000000000000038
S315000002C00000000000000000000000000000000028
S315000002D00000000000000000000000000000000018
S315000002E00000000000000000000000000000000008
S315000002F000000000000000000000000000000000F8
S3150000030000000000000000000000000000000000E7
S3150000031000000000000000000000000000000000D7
S3150000032000000000000000000000000000000000C7
S3150000033000000000000000000000000000000000B7
S3150000034000000000000000000000000000000000A7
S31500000350EF00107C1304010093020000639C02006E
S31500000360138501C9138601EEB306A64093D5360060
S31500000370EF00107B938201D023A08200EF00107D56
S31500000380EF001079EF10801EEF108023EF10800C25
S3150000039017250000130585BBEF10D036EF109040EF
S315000003A0EF001077938241C903A50200938201C72B
S315000003B083A5020013060000EF00C00DEF10D03534
S315000003C0730010000000000000000000938781C643
S315000003D0138781C6630AF700930700006386070048
S315000003E0138581C66780070067800000938781C6F2
S315000003F0938581C6B385F54093D7254093D5F501FE
S31500000400B385F50093D51540638A05009307000070
S3150000041063860700138581C6678007006780000032
S31500000420130101FF2324810083C781D023261100F5
S3150000043063920702EFF09FF99307000063880700B5
S31500000440138541C897000000E700000093071000DD
S315000004502384F1D08320C10003248100130101010C
S31500000460678000009307000063840702130101FF01
S315000004709385C1D0138541C823261100970000003B
S31500000480E70000008320C100130101016FF01FF691
S315000004906FF0DFF5130101FE232E81001304010224
S315000004A0232604FE938741D2373708FC23A0E700B2
S315000004B0938741D283A70700938787001307F0FF2E
S315000004C023A0E700938741D283A7070093874700BD
S315000004D00327C4FE23A0E7008327C4FE9387D70023
S315000004E02326F4FE6FF01FFC130101FD2326810273
S315000004F013040103232CA4FC232EB4FC032784FD40
S315000005008327C4FD832707002326F4FE8327C4FE22
S31500000510138507000324C10213010103678000004D
S31500000520130101FE232E8100130401022324A4FEDD
S315000005302326B4FE2322C4FE832784FE13870700E6
S31500000540832744FE2320F7001300000013850700CD
S315000005500324C1011301010267800000130101FD9C
S31500000560232611022324810213040103232EA4FC53
S315000005708327C4FD13D7F74113777700B307F70036
S3150000058093D737402324F4FE8327C4FD939717009F
S3150000059013850700EF10D02A930705002322F4FEE7
S315000005A0032744FE8327C4FDB307F7000327C4FDD2
S315000005B03307E040B3F7E7002322F4FE832744FE27
S315000005C02320F4FE232604FE6F0040028327C4FE88
S315000005D093973700032704FEB307F70023A007000D
S315000005E08327C4FE938717002326F4FE0327C4FE41
S315000005F0832784FEE34CF7FC832744FE138507001C
S315000006008320C102032481021301010367800000D5
S31500000610130101FB2326110423248104232221052F
S3150000062023203105232E4103232C5103232A610362
S315000006302328710323268103232491031304010530
S31500000640232EA4FA232CB4FA232AC4FA832744FBC4
S3150000065093870701138C070093D7F741938C070004
S3150000066013050C0093850C00EFF01FE893070500B7
S315000006702326F4FC8327C4FC93F78700E39807FC42
S315000006808327C4FB1397B700832784FB93976700E0
S3150000069093F7077CB367F70093E727002326F4FC5C
S315000006A0832744FB93870701138B070093D7F741F2
S315000006B0938B07000326C4FC13050B0093850B00E0
S315000006C0EFF01FE6832744FB93870701138A070091
S315000006D093D7F741938A070013050A0093850A000A
S315000006E0EFF09FE0930705002326F4FC8327C4FC64
S315000006F093F78700E39807FC8327C4FC93F7070169
S31500000700639C0702832744FB93870701138907002D
S3150000071093D7F741938907001305090093850900CC
S31500000720EFF09FDC930705002326F4FC8327C4FC27
S3150000073093D707016F0080009307F0FF138507002A
S315000007408320C1040324810403294104832901046D
S31500000750032AC103832A8103032B4103832B01034D
S31500000760032CC102832C810213010105678000005E
S31500000770130101FC232E1102232C8102232A2103BB
S315000007802328310323264103232451032322610313
S3150000079023207103130401042326A4FC2324B4FCA0
S315000007A02322C4FC2320D4FC832704FC938707015F
S315000007B0138B070093D7F741938B070013050B00A4
S315000007C093850B00EFF05FD293070500232EF4FC10
S315000007D08327C4FD93F78700E39807FC832744FC2F
S315000007E0139707018327C4FC9397B7003367F70075
S315000007F0832784FC9397670093F7077CB367F7001A
S3150000080093E71700232EF4FC832704FC9387070144
S31500000810138A070093D7F741938A07000326C4FD7E
S3150000082013050A0093850A00EFF09FCF832704FC87
S31500000830938707011389070093D7F7419389070028
S315000008401305090093850900EFF01FCA93070500F9
S31500000850232EF4FC8327C4FD93F78700E39807FC57
S3150000086013000000130000008320C103032481034A
S315000008700329410383290103032AC102832A810232
S31500000880032B4102832B0102130101046780000040
S31500000890130101FE232E1100232C8100232A21019E
S315000008A023283101130401022326A4FE2324B4FEC7
S315000008B0832684FE03C606008326C4FE2382C60062
S315000008C0832684FE03C616008326C4FEA382C600C2
S315000008D0832684FE03C626008326C4FE2383C60021
S315000008E0832684FE03C636008326C4FEA383C60081
S315000008F0832684FE03C646008326C4FE2384C600E0
S31500000900832684FE03C656008326C4FEA384C6003F
S315000009108326C4FE83A606009386860013870600F8
S3150000092093D6F64193870600832684FE83C6060087
S3150000093093968600032684FE1306160003460600D9
S31500000940B3E6C60013860600130507009385070065
S31500000950EFF01FBD8327C4FE83A707009387C70058
S315000009601389070093D7F74193890700832784FEED
S315000009709387270083C7070013978701832784FE81
S315000009809387370083C70700939707013367F700FC
S31500000990832784FE9387470083C7070093978700C2
S315000009A0B367F700032784FE1307570003470700C2
S315000009B0B3E7E700138607001305090093850900CE
S315000009C0EFF01FB693071000138507008320C101BF
S315000009D00324810103294101832901011301010235
S315000009E067800000130101F92326110623248106DE
S315000009F02322210723203107232E4105232C5105CD
S31500000A00232A6105232871052326810523249105C0
S31500000A102322A1052320B105130401072326A4FAE6
S31500000A208326C4FA83A606001387060093D6F641EA
S31500000A30938706001305070093850700EFF0DFAAEA
S31500000A40930705002320F4FC832704FC93D7B70102
S31500000A5013F717008327C4FA23A6E700832704FCAD
S31500000A6013D7F7018327C4FA23AAE700032704FC58
S31500000A70B7470000B377F70093B7170093F7F70F60
S31500000A80138707008327C4FA23ACE7008327C4FA39
S31500000A9083A74701639E07048327C4FA83A7070039
S31500000AA02320F4FA93D7F7412322F4FA130600041D
S31500000AB0032504FA832544FAEFF09FA68327C4FA98
S31500000AC083A70700232CF4F893D7F741232EF4F8D5
S31500000AD0032584F98325C4F9EFF01FA193070500C8
S31500000AE02320F4FC832704FC93F70704E39807FC10
S31500000AF08327C4FA83A7070093870701138D07008E
S31500000B0093D7F741938D070013050D0093850D00CC
S31500000B10EFF09F9D930705002320F4FC832704FC38
S31500000B2093D7B70013F7F7018327C4FA23A8E70082
S31500000B3013050040EFF09FA2130705008327C4FAB0
S31500000B4023AEE70013050040EFF05FA11307050091
S31500000B508327C4FA23A0E7028327C4FA83A70700E2
S31500000B6093874701138C0700930C00008327C4FA70
S31500000B7083A7C7011386070013050C0093850C0095
S31500000B80EFF01F9A8327C4FA83A70700938787018C
S31500000B90138B0700930B00008327C4FA83A7070271
S31500000BA01386070013050B0093850B00EFF05F9784
S31500000BB08327C4FA23A207028327C4FA23A40702C1
S31500000BC08327C4FA23A607028327C4FA23A80702A9
S31500000BD08327C4FA83A74701638807008327C4FADB
S31500000BE083A78701639A07228327C4FA83A707018D
S31500000BF0138707008327C4FA83A707009386070095
S31500000C00378600009305000013050700EFF05FB676
S31500000C10130000008327C4FA83A707011387070080
S31500000C208327C4FA83A707001386070093050000ED
S31500000C3013050700EFF0DF9D930705002320F4FC62
S31500000C40032704FCB7870000B377F700E39407FC9B
S31500000C50232604FC032704FCB7170000B377F7002C
S31500000C60638E07046F0000028327C4FC9387170076
S31500000C702326F4FC0327C4FCB7C700009387073577
S31500000C8063CCE7028327C4FA83A70701138707000B
S31500000C908327C4FA83A7070013860700930510006D
S31500000CA013050700EFF0DF969307050093F7070299
S31500000CB0E38C07FA6F008000130000008327C4FA54
S31500000CC083A70701138707008327C4FA83A70700B2
S31500000CD0138607009305000013050700EFF05F93E6
S31500000CE0930705002320F4FC8327C4FA83A7C700D3
S31500000CF063880702032704FCB7270000B377F700D1
S31500000D0063900702832704FC93F70704638A0700AE
S31500000D10930710002322F4FC232404FC6F004005F3
S31500000D20032704FCB7270000B377F70063800702A8
S31500000D30832704FC93F70704639A0700232204FC25
S31500000D40930710002324F4FC6F008002032704FCA1
S31500000D50B7270000B377F700639C0700832704FCDE
S31500000D6093F7070463960700232204FC232404FC5C
S31500000D70832704FC93D7870093F71700232EF4FAF2
S31500000D808327C4FA83A7C70063980702232204FCBB
S31500000D908327C4FA83A70701138707008327C4FAAA
S31500000DA083A70700938607001306000093059000AB
S31500000DB013050700EFF0DF9B8327C4FA83A707001C
S31500000DC0138A070093D7F741938A07008327C4FA4B
S31500000DD083A787011397E700B7470000B347F700DB
S31500000DE00327C4FB13174700B3E7E700032784FC78
S31500000DF013177700B3E7E700032744FC13178700B0
S31500000E00B3E7E7001386070013050A0093850A0077
S31500000E10EFF00FF16F004006232604FC6F0000057B
S31500000E208327C4FA83A7070093870701138907005E
S31500000E3093D7F741938907001305090093850900A5
S31500000E40EFF08FEA930705002320F4FC832704FCC8
S31500000E5093F7870063860700232604FC6F000001D2
S31500000E608327C4FC938717002326F4FC0327C4FCBE
S31500000E7093072000E3D6E7FA8327C4FA938747004F
S31500000E80938507000325C4FAEFF09FA01300000026
S31500000E90138507008320C106032481060329410622
S31500000EA083290106032AC105832A8105032B4105EF
S31500000EB0832B0105032CC104832C8104032D4104DB
S31500000EC0832D01041301010767800000130101FE51
S31500000ED0232E1100232C8100232A210123283101EE
S31500000EE0130401022326A4FE2324B4FE2322C4FEF7
S31500000EF0832644FE03A6C601832644FE83A6460235
S31500000F0093963600B306D6001387060093D6F641AD
S31500000F10938706001305070093850700EFF0CFDCE3
S31500000F2013070500B717000093870780B377F7000C
S31500000F3063860700930700006F00C00E832744FEF8
S31500000F4003A7C701832744FE83A747029397370069
S31500000F50B307F700032784FE23A2E700832744FE96
S31500000F6003A747029307F0076310F7040327C4FE9D
S31500000F70B727000093870780B366F700832744FEF0
S31500000F8003A7C701832744FE83A747029397370029
S31500000F90B307F7001387060023A0E700832744FE64
S31500000FA023A207026F0080040327C4FEB7170000C0
S31500000FB093870780B366F700832744FE03A7C7011C
S31500000FC0832744FE83A7470293973700B307F700AA
S31500000FD01387060023A0E700832744FE83A7470262
S31500000FE013871700832744FE23A2E702832744FEC4
S31500000FF083A707001389070093D7F7419389070052
S315000010001305090093850900EFF00FCE930705003D
S3150000101013E71700832744FE83A7070023A0E700F2
S3150000102093071000138507008320C1010324810163
S315000010300329410183290101130101026780000090
S31500001040130101FE232E1100232C8100232A2101E6
S3150000105023283101130401022326A4FE2324B4FE0F
S31500001060832684FE03A60602832684FE83A68602C2
S3150000107093963600B306D6001387060093D6F6413C
S31500001080938706001305070093850700EFF0CFC589
S3150000109013070500B717000093870780B377F7009B
S315000010A063860700930700006F00400D832784FEC8
S315000010B003A70702832784FE83A787029397370037
S315000010C0B307F7000327C4FE23A2E700832784FEA5
S315000010D003A787029307F007631AF702832784FEA4
S315000010E003A70702832784FE83A787029397370007
S315000010F0B307F700372700001307078023A0E70090
S31500001100832784FE23A407026F00C003832784FE7F
S3150000111003A70702832784FE83A7870293973700D6
S31500001120B307F700371700001307078023A0E7006F
S31500001130832784FE83A7870213871700832784FEED
S3150000114023A4E702832784FE83A7070013890700E9
S3150000115093D7F74193890700130509009385090082
S31500001160EFF08FB89307050013E72700832784FE67
S3150000117083A7070023A0E700930710001385070045
S315000011808320C1010324810103294101832901012F
S315000011901301010267800000130101FD23261102DD
S315000011A02324810213040103232EA4FC232CB4FC64
S315000011B0232AC4FC832644FD03A60602832644FD97
S315000011C083A6060393963600B306D6001387060059
S315000011D093D6F6419387060013050700938507000B
S315000011E0EFF08FB02326A4FE0327C4FEB717000036
S315000011F093870780B377F700639607048327C4FEB7
S3150000120013F7F77F8327C4FD23A0E700832744FD58
S3150000121003A707039307F0076318F700832744FD26
S3150000122023A807026F008001832744FD83A70703D5
S3150000123013871700832744FD23A8E70293071000AE
S315000012406F00800093070000138507008320C1020A
S31500001250032481021301010367800000130101FDCD
S31500001260232611022324810213040103232EA4FC46
S315000012708326C4FD03A6C6018326C4FD83A6C60233
S3150000128093963600B306D6001387060093D6F6412A
S31500001290938706001305070093850700EFF0CFA498
S315000012A02326A4FE0327C4FEB717000093870780F2
S315000012B0B377F700639E07028327C4FD03A7C7021F
S315000012C09307F0076318F7008327C4FD23A60702D8
S315000012D06F0080018327C4FD83A7C7021387170009
S315000012E08327C4FD23A6E702930710006F00800042
S315000012F093070000138507008320C102032481029F
S31500001300130101036780000003A501CA678000007E
S3150000131067800000000000000000000000000000E0
S315000013209387F5FF638205021307F0FF130600009B
S31500001330930600002320C5002322D5009387F7FFDC
S3150000134013058500E394E7FE67800000B7370000C9
S315000013503737000013860730930507306300B6045D
S31500001360B73600009386063063FAD5029386F6FFF9
S31500001370B386B64093F6C6FF938646003306D6007C
S31500001380130707309387073083A607009387470024
S3150000139013074700232ED7FEE398C7FE6780000099
S315000013A073001000678000009317160093D717008C
S315000013B01307B0006386E700730010006780000023
S315000013C0130101FE2328210103A9C1C9B707200083
S315000013D0232A91003309F900832449002326310189
S315000013E0232E1100232C8100938981DA638C040259
S315000013F093972400B387F90003A40700630E040043
S31500001400832784000325C40093850400E780070032
S3150000141003240400E31604FE2322990083244900D2
S31500001420E39804FC8320C101032481018324410144
S31500001430032901018329C10013010102678000000D
S3150000144083A701CA130500009387170023A0F1CADA
S3150000145067800000130101FB2324810483A701CACE
S3150000146023261104232291046386070C83A7C1C98E
S315000014706396070203A541C7B7270000130881003A
S31500001480938747DA13074000930620001306200CC3
S3150000149093051000EF00D00F23AEA1C883A781C922
S315000014A06396070203A541C7B7270000130881000A
S315000014B0938747DA13074000930620001306300C83
S315000014C093051000EF00D00C23ACA1C803A741CAB6
S315000014D083A6C1C993071000131727001307072017
S315000014E01317C7003387E600232007009305100073
S315000014F013060002139727003387E6002320B70060
S3150000150093871700E398C7FEB717000093870780F5
S3150000151073A047309307800073A007308320C1046F
S3150000152003248104832441041305000013010105EB
S315000015306780000003A541C7B717000093870744DB
S315000015401308000013074000930610001306D00B83
S3150000155093051000EF00D00383A701CAE39807F0B4
S315000015609307100023A0F1CA6FF05FF0130101FF8B
S315000015702324810083A781CA2326110013050000B6
S315000015806398070203A541C7B727000013080000A8
S31500001590938747DA13074000930640001306C000FE
S315000015A093051000EF00C07E23A4A1CA13351500D1
S315000015B08320C1000324810013010101678000001C
S315000015C0130101FE232C810083A701CB232E1100DA
S315000015D013050000638A07008320C10103248101EB
S315000015E0130101026780000003A541C7B727000069
S315000015F0938747DA1308010013074000930640005B
S315000016001306100193051000EF008078930705007C
S3150000161023A8A1CA13051000E38007FC03471100A5
S315000016208320C1010324810123A6E1CA130500001A
S315000016301301010267800000638A051C630C0626FD
S3150000164003A70500232AB6029357570093F6070609
S315000016501377F70193F7F70133E7E6002300F60067
S31500001660A300E60083A7050163820712939607018C
S31500001670B3F6F600B708F0FF13F8F70013073000CB
S31500001680B3F616016306E82013D747001317470180
S31500001690B337E000B307F0401347F7FF3377F7009F
S315000016A02306060183A745012322D6002324E6004C
S315000016B0638E070E93960701B3F6F600B708F0FFA0
S315000016C013F8F70013073000B3F616016300E81AA3
S315000016D013D7470013174701B337E000B307F040AD
S315000016E01347F7FF3377F70083A785012328D60032
S315000016F0232AE600230C0601638A070C939607014A
S31500001700B3F6F600B708F0FF13F8F700130730003A
S31500001710B3F61601630AE81213D7470013174701F9
S31500001720B337E000B307F0401347F7FF3377F7000E
S3150000173083A7C501232ED6002320E6022302060333
S315000017406386070A139707013377F7003708F0FF18
S3150000175093F6F7009305300033770701638CB60ADA
S3150000176093D7470093974701B335F000B305B040D0
S3150000177093C7F7FFB3F7B7002324E6022326F60242
S315000017802308D60213050000678000001308000036
S315000017902306060183A745011307000093060000F0
S315000017A02322D6002324E600E39607F083A78501CB
S315000017B01307000093060000130800002328D60034
S315000017C0232AE600230C0601E39A07F283A7C50144
S315000017D0130700009306000013080000232ED6000E
S315000017E02320E60223020603E39E07F49307000084
S315000017F013070000930600002324E6022326F602C0
S315000018002308D602130500006780000013051000A8
S315000018106780000093C7F7FFB7051000938505F0B2
S3150000182093974700B3F7B7001357C7003367E50030
S3150000183093E7F70F2324E6022326F6022308D602AF
S31500001840130500006780000013C7F7FFB7071000F5
S3150000185013174700938707F093D6C6003377F70030
S31500001860B366D5001367F70F6FF09FEC13C7F7FF4A
S31500001870B707100013174700938707F093D6C600E3
S315000018803377F700B366D5001367F70F6FF0DFE520
S3150000189013C7F7FFB707100013174700938707F022
S315000018A093D6C6003377F700B366D5001367F70FF4
S315000018B06FF01FDF1305200067800000130101F69B
S315000018C0232441092322510923206109232E71076C
S315000018D0232C8107232A9107232AD100232E1108BE
S315000018E0232C8108232A910823282109232631093C
S315000018F02328A1072326B10793F6160023261101F4
S31500001900930C0500938B0500130C0600930A070041
S31500001910138B0700130A08006384060E37F40F00C2
S3150000192033648500630E080C638A0530630006384D
S31500001930B714000013890480330924019384F4FF4B
S315000019406F00C00013040402630C890A8327040095
S3150000195013D7C7003377970093D78701B3E6E7001D
S31500001960E38206FEE39077FFE31EECFC930504009A
S315000019701306810213850C00EFF01FCC8327C100EC
S3150000198013870A009306100013060C0093850B00BC
S3150000199013058102E7000A00E30605FA6F00800DD1
S315000019A0B719000093870980330DF4009389F9FF76
S315000019B083270400930504001306810213D9C70088
S315000019C093D4870133793901B3E7240113850C00D9
S315000019D01304040263840702EFF01FC68327C100C5
S315000019E013870A0093061000130609009385040066
S315000019F013058102E7000A00631E0506E31AA4FB2D
S31500001A0003274101B707100093840780137D270041
S31500001A10B71D000013774700B3E49C002324E100C0
S31500001A20938D0D80371700009387F7FFB38DB401B0
S31500001A309309F7FF232EF10003A304001359C300F3
S31500001A401354830133733901630A0D00B3676400CD
S31500001A50638C0700638E0B04638C8B0463F66A0148
S31500001A6093071000630CF40893840402E396B4FD14
S31500001A70130500008320C109032481098324410939
S31500001A80032901098329C108032A8108832A4108F9
S31500001A90032B0108832BC107032C8107832C4107E5
S31500001AA0032D0107832DC1061301010A678000007B
S31500001AB063040C00E3146CFAE3020AFA13068102CB
S31500001AC09385040013850C0023286100EFF0DFB630
S31500001AD0032301018327C10013870A0013060300AD
S31500001AE0930620009305040013058102E7000A000F
S31500001AF003230101E30405F66FF0DFF79307000205
S31500001B006302F310B71700009387B7FF3379F90024
S31500001B109307B0046308F90E83278100E38607F470
S31500001B2093076000E312F3F483A7040137F40F0070
S31500001B3013871A00139307013373F300B707F0FFF7
S31500001B403373F30033648300130904086F00000144
S31500001B506384BB0213048400E30889F0832704002E
S31500001B6013D6C70093D5870133763601B3E6C50091
S31500001B70E38206FEE39E0BFC63040C00E31CCCFC34
S31500001B80E30A0AFC93D6570013F5060693F7F70106
S31500001B90B367F50093F6F601A304F1022304D1021C
S31500001BA0832644008327C100232CE10013954600B9
S31500001BB093D8C600B7061000B3F8A80013080500AE
S31500001BC0138506F08326C101B3F8A8003378A80070
S31500001BD0B3E868003348D800130581029306400035
S31500001BE023286100232A81022326110323280103C7
S31500001BF0E7000A000323010103278101E30C05F432
S31500001C006FF05FE703A58400E30805F08328C100B1
S31500001C108326410113080A0093070B0013871A0055
S31500001C2013060C0093850B0023286100EFF01FC9F3
S31500001C3003230101E30205EE6FF0DFE3E30206D6BC
S31500001C403719000093090980B30934011309F9FF14
S31500001C506F00C00013040402E38489DA83270400BA
S31500001C6013D7C70093D48701B377270133E7F4006E
S31500001C70E30207FEE310FCFE93050400130681024F
S31500001C8013850C00EFF05F9B8327C10013870A00C2
S31500001C909306100013060C009385040013058102B9
S31500001CA0E7000A00E30805FA6FF0DFDC37190000E9
S31500001CB093090980B30934011309F9FF6F00C000C5
S31500001CC013040402E38E89D28327040093D4C70049
S31500001CD0B3F4240193D7870133E79700E30207FEA5
S31500001CE0E390FBFE930504001306810213850C00A6
S31500001CF0EFF09F948327C10013870A009306100014
S31500001D001386040093850B0013058102E7000A0081
S31500001D10E30805FA6FF01FD6638405066306060618
S31500001D2003A8050037071000130307F09356580061
S31500001D3093F806061378F80193F6F60133E80801DE
S31500001D402300D600A300060183A745009306F7FFEC
S31500001D502326B60013D7C700939547003377B700FD
S31500001D6033776700B3F765003365A700B3C7D700BD
S31500001D702322A6002324F600130500006780000036
S31500001D80130510006780000013052000678000001F
S31500001D90930808001388070093070700130700003D
S31500001DA06FF0DFB1638C070013074000638CE60019
S31500001DB09386F6FF13071000637AD70203254500C2
S31500001DC067800000832505000326450083268500DD
S31500001DD00327C50023A0B70023A2C700032545009B
S31500001DE023A4D70023A6E700678000001307050099
S31500001DF09308050303280700832547000326870069
S31500001E008326C70023A0070123A2B70023A4C70087
S31500001E1023A6D7001307070193870701E31C17FDC5
S31500001E20832607000327470023A0D70023A2E70045
S31500001E30032545006780000083A7C1C9638E070498
S31500001E40F375043083A641CA1356F5411376F6019D
S31500001E503306A6001356564093967600B386C60000
S31500001E6093962600B387D70037270000B387E7008D
S31500001E7083A60700130710003317A7001347F7FFC1
S31500001E803377D70023A0E70093F7850073A00730C8
S31500001E90130500006780000013051000678000002E
S31500001EA083A7C1C9638C07047376043003A741CAAC
S31500001EB09356F54193F6F601B386A60093D656409F
S31500001EC0131777003307D70013172700B387E700E8
S31500001ED037270000B387E70083A607001307100023
S31500001EE03315A7003365D50023A0A7009377860096
S31500001EF073A007301305000067800000130510006B
S31500001F006780000093050500930600001306000095
S31500001F10130500006F009014130101FF93050000E4
S31500001F20232481002326110013040500EF00501E10
S31500001F3003A581C68327850263840700E78007001F
S31500001F4013050400EF10C033130101FF23248100A1
S31500001F50B7370000373400001304442F9387872FC8
S31500001F60B3878740232291002326110093D427406C
S31500001F70638004029387C7FF3384870083270400A6
S31500001F809384F4FF1304C4FFE7800700E39804FE7C
S31500001F908320C10003248100832441001301010131
S31500001FA067800000130101FF232481002320210103
S31500001FB037340000373900009307042F1309092F1F
S31500001FC03309F94023261100232291001359294091
S31500001FD0630009021304042F9304000083270400FE
S31500001FE09384140013044400E7800700E31899FE65
S31500001FF037340000373900009307042F1309492F9F
S315000020003309F94013592940630009021304042FC8
S3150000201093040000832704009384140013044400EF
S31500002020E7800700E31899FE8320C100032481009E
S315000020308324410003290100130101016780000088
S315000020409305050003A581C76F00000193050500F0
S3150000205003A581C76F00D042130101FD232E310174
S315000020602326110223248102232291022320210305
S31500002070232C4101232A51012328610123267101C2
S3150000208023248101232291019387B5001307600160
S31500002090930905006366F7069307000163E6B71E1A
S315000020A0EF0080759304000193078001130620005A
S315000020B03739000013090936B307F90003A44700AE
S315000020C0138787FF630AE420832744008326C4001E
S315000020D00326840093F7C7FFB307F40003A747005E
S315000020E02326D60023A4C60013671700138509000C
S315000020F023A2E700EF008070130584006F008019AB
S3150000210093F487FF63C2071863E0B418EF00C06E4C
S315000021109307701F63FC974493D794006386071A4E
S31500002120130740006362F73C93D764001386970356
S3150000213013858703931636003739000013090936CD
S31500002140B306D90003A44600938686FF63868602FB
S315000021509305F0006F000001635207320324C400A8
S31500002160638C86008327440093F7C7FF3387974025
S31500002170E3D4E5FE1306050003240901930889004C
S3150000218063081417032544009306F0001375C5FF72
S31500002190B307954063C2F640232A19012328190183
S315000021A063DC073C9307F01F63E0A72E937785FF58
S315000021B09387870083254900B307F90083A60700A4
S315000021C013555500130710003317A7003367B700E0
S315000021D0938587FF2326B4002324D4002322E90015
S315000021E023A0870023A68600935726409305100058
S315000021F0B395F5006368B710B3F7E500639407027B
S31500002200939515001376C6FFB3F7E500130646004F
S31500002210639A070093951500B3F7E5001306460089
S31500002220E38A07FE1308F000131336003303690030
S31500002230130503008327C500130E06006308F52C5B
S3150000224003A747001384070083A7C7001377C7FFB8
S31500002250B30697406348D82CE3C206FE3307E40072
S3150000226083264700032684001385090093E616009B
S315000022702322D7002326F60023A4C700EF00005828
S31500002280130584006F0000019307C00023A0F90026
S31500002290130500008320C102032481028324410226
S315000022A0032901028329C101032A8101832A4101ED
S315000022B0032B0101832BC100032C8100832C4100D9
S315000022C01301010367800000930600201306000433
S315000022D01305F0036FF05FE603A4C700130626009C
S315000022E0E39487DE0324090193088900E31C14E9BB
S315000022F0032749009357264093051000B395F50030
S31500002300E37CB7EE03248900832A440013FBCAFF4B
S3150000231063689B00B3079B401307F000634CF712FA
S3150000232083AAC1CB03A7C1C79307F0FF330A640191
S31500002330B38A54016304F734B71700009387F70094
S31500002340B38AFA00B7F7FFFFB3FAFA0093850A00DB
S3150000235013850900EF00C04A9307F0FF930B0500B1
S315000023606306F52863624529138C81E283250C00F8
S31500002370B385BA002320BC0093870500630EAA38F4
S3150000238083A6C1C71307F0FF6386E63A338A4B413B
S31500002390B307FA002320FC0093FC7B0063820C3019
S315000023A0B7170000B38B9B4193858700938B8B00F7
S315000023B0B3859541B38A5B019387F7FFB385554192
S315000023C033FAF50093050A0013850900EF00404330
S315000023D09307F0FF630AF53A33057541B30A4501E1
S315000023E083250C002324790193EA1A00B305BA0069
S315000023F02320BC0023A25B01630224359306F00070
S3150000240063F266350327440093074BFF93F787FF74
S31500002410137717003367F7002322E40013065000F2
S315000024203307F4002322C7002324C70063E8F636E7
S3150000243083AA4B0013840B0003A781CB6374B700F8
S3150000244023ACB1CA03A741CB6376B71A23AAB1CA94
S315000024506F00401A13E714002322E400B30494002B
S315000024602324990093E717001385090023A2F4009B
S31500002470EF00C038130584006FF0DFE18326C40047
S31500002480032684006FF05FC593579500130740003D
S315000024906372F71413074001636AF7229386C70530
S315000024A09385B70593963600B306D90083A7060031
S315000024B0938686FF6388F61C03A747001377C7FF3A
S315000024C06376E50083A78700E398F6FE83A6C70038
S315000024D0032749002326D4002324F40023A48600DE
S315000024E023A687006FF05FD0130740016376F712CB
S315000024F013074005636AF71E93D7C4001386F706D1
S315000025001385E706931636006FF01FC3130E1E00E1
S3150000251093773E0013058500638E07108327C50059
S315000025206FF0DFD10326840093E514002322B40064
S315000025302326F60023A4C700B3049400232A990097
S315000025402328990093E7160023A6140123A4140157
S3150000255023A2F4003307E400138509002320D700E3
S31500002560EF00C029130584006FF0DFD213D63400C4
S31500002570938784006FF0DFB33307A40083274700F7
S315000025801385090093E717002322F700EF000027C1
S31500002590130584006FF01FD013E714002322E40014
S315000025A0B3049400232A99002328990013E71700FF
S315000025B023A6140123A4140123A2E4003305A400D6
S315000025C02320F50013850900EF004023130584003E
S315000025D06FF05FCC935765009386970393858703C7
S315000025E0939636006FF05FEC630E24110324890086
S315000025F0832A440093FACAFFB3879A4063E69A0097
S315000026001307F000E348F7E413850900EF00001F05
S31500002610130500006FF01FC81386C7051385B7059D
S31500002620931636006FF05FB1832783001306F6FF1B
S315000026306390671C93773600130383FFE39607FEC8
S315000026400327490093C7F5FFB3F7E7002322F900F4
S3150000265093951500E3E8B7CAE38605CA33F7F50094
S31500002660631A07009395150033F7F500130E4E0015
S31500002670E30A07FE13060E006FF01FBB938A0A01DA
S315000026806FF0DFCC0325490093D5254013071000D2
S315000026903317B7003367A7002322E9006FF09FE3E3
S315000026A0B3855B01B305B0409395450113DA450147
S315000026B093050A0013850900EF0080149307F0FFC5
S315000026C0E31CF5D0130A00006FF09FD113074005F5
S315000026D06360F7089357C5009386F7069385E70668
S315000026E0939636006FF05FDC130740156360F708BA
S315000026F093D7F4001386870713857707931636005A
S315000027006FF09FA3138C81E283270C00B387FA0036
S315000027102320FC006FF0DFC613174A01E31207C639
S3150000272003248900B30A5B0193EA1A0023225401A9
S315000027306FF09FD023AE71C76FF01FC613840B00D6
S315000027406FF09FCF9307100023A2FB006FF0DFEB23
S31500002750130740156362F7069357F50093868707BC
S3150000276093857707939636006FF01FD4130740556D
S315000027706362F70693D724011386D7071385C70725
S31500002780931636006FF05F9B938C8CFFB38A9A0189
S31500002790B38A7A41130A00006FF09FC49305840040
S315000027A013850900EF00C04D0324890083250C0022
S315000027B0832A44006FF05FC8130740556364F7022D
S315000027C0935725019386D7079385C70793963600B7
S315000027D06FF09FCD9306803F1306F0071305E007C1
S315000027E06FF09F959306803F9305E0076FF0DFCB70
S315000027F0832749006FF0DFE56780000067800000EF
S31500002800130101FF232481002322910013040500F4
S31500002810138505002326110023A201CCEF00902684
S315000028209307F0FF630CF5008320C10003248100A9
S3150000283083244100130101016780000083A741CC76
S31500002840E38407FE8320C1002320F40003248100D3
S3150000285083244100130101016780000083A701CC96
S315000028606382070603A747001308F001634EE808D2
S3150000287093182700630C050203A887086306080857
S3150000288093182700330E18012320CE0003230810C7
S31500002890130610003316E6003363C30023206810C6
S315000028A02320DE0893062000630ED50213071700C7
S315000028B023A2E700B387170123A4B700130500007E
S315000028C067800000938801E523A011CD130700005F
S315000028D0938701E5E30807F80327000023A4E70828
S315000028E06FF05FF8832648101307170013050000E2
S315000028F033E6C6002322C81023A2E700B3871701D8
S3150000290023A4B700678000001305F0FF678000006E
S31500002910130101FC232061032328210303A901CC11
S31500002920232E1102232C8102232A9102232631030E
S315000029302324410323225103232E7101232C8101D9
S31500002940232A91012328A1012326B1016306090A3E
S31500002950130C0500938A0500930B1000930CF0FFEF
S3150000296083244900032D89081384F4FF6346040871
S3150000297063820A0E63020D0893942400B3099D0036
S31500002980B30499006F0040011304F4FF9389C9FF53
S315000029909384C4FF6302940783A7C907E396FAFEEC
S315000029A0032A490083A744001307FAFF6308E408D3
S315000029B023A20400E38A07FC03270D10B3968B00BD
S315000029C033F7E6006308070603274D1083A5C9FF02
S315000029D0B3F6E600638A060613850500E78007005E
S315000029E00327490083A701CC6314EA00E30EF9F834
S315000029F013890700E39607F68320C10303248103A6
S31500002A0083244103032901038329C102032A810286
S31500002A10832A4102032B0102832BC101032C81016E
S31500002A20832C4101032D0101832DC10013010104F3
S31500002A3067800000E78007006FF09FFA2322890075
S31500002A40130A04006FF01FF713050C00E780070058
S31500002A506FF01FF963020D0A939D2400B309B901B3
S31500002A601387F4FF83A74900B30DBD01138A040041
S31500002A706304E40623A20900638E070203270D10F0
S31500002A80B3968B0033F7E600630E070403274D1059
S31500002A9083A5CDFFB3F6E600639A060413050C0082
S31500002AA0E78007008324490083A701CCE3129AF448
S31500002AB0E310F9F41304F4FF9389C9FF938DCDFF56
S31500002AC0E30C94F38324490083A749001387F4FF9A
S31500002AD0138A0400E310E4FA23228900130A04008F
S31500002AE06FF09FF9E78007006FF0DFFB13850500A5
S31500002AF0E78007006FF01FFB93992400B3093901A3
S31500002B006F00000323A209001304F4FF638C07007F
S31500002B10E78007008324490083A701CCE31A9AECD7
S31500002B20E39827ED9389C9FFE30894ED83244900D0
S31500002B301387F4FF83A74900138A0400E31487FC74
S31500002B4023228900130A04006FF01FFC130101FE03
S31500002B5023263101B7390000232C8100232A910056
S31500002B602328210123244101232E1100138A050065
S31500002B701309050093890936EFF01FC803A78900DA
S31500002B80B71700001384F7FE83244700330444413B
S31500002B9093F4C4FF330494001354C4001304F4FFE5
S31500002BA01314C400634EF4009305000013050900D6
S31500002BB0EFF01FC583A78900B38797006308F50266
S31500002BC013050900EFF09FC38320C101032481018F
S31500002BD083244101032901018329C100032A8100BD
S31500002BE0130500001301010267800000B305804051
S31500002BF013050900EFF0DFC09307F0FF6308F50443
S31500002C00938781E203A7070083A68900B3848440E3
S31500002C1093E41400330487401305090023A29600A9
S31500002C2023A08700EFF09FBD8320C101032481010B
S31500002C3083244101032901018329C100032A81005C
S31500002C4013051000130101026780000093050000C0
S31500002C5013050900EFF0DFBA03A789009306F00019
S31500002C60B307E540E3DEF6F483A6C1C793E7170092
S31500002C702322F7003305D54023A4A1E26FF05FF4C9
S31500002C80638A0512130101FF232481002322910088
S31500002C90138405009304050023261100EFF0DFB529
S31500002CA00328C4FF130784FFB73500009377E8FFB6
S31500002CB03306F700938505368326460003A585006F
S31500002CC093F6C6FF630AC51A2322D60013781800A6
S31500002CD03305D6006310080A032384FF0328450042
S31500002CE0373500003307674083288700130585368C
S31500002CF0B3876700137818006380A8140323C700FE
S31500002D0023A66800232413016300081E93E6170018
S31500002D102322D7002320F6009306F01F63E8F60A65
S31500002D2093F687FF9386860003A54500B386D500F4
S31500002D3003A6060013D8570093071000B3970701A0
S31500002D40B3E7A700138586FF2326A7002324C70021
S31500002D5023A2F50023A0E6002326E6000324810033
S31500002D608320C1001385040083244100130101015F
S31500002D706FF0DFA80325450013751500631E0502D5
S31500002D8037350000B387D7001305853683268600BE
S31500002D9093E817003308F7006384A6160326C600D7
S31500002DA023A6C6002324D600232217012320F800D9
S31500002DB06FF09FF66780000093E61700232ED4FE7F
S31500002DC02320F6009306F01FE3FCF6F493D6970053
S31500002DD0130640006368D60E93D6670013889603E1
S31500002DE013868603131838003388050183260800E6
S31500002DF0130888FF6304D81203A646001376C6FF9D
S31500002E0063F6C70083A68600E318D8FE03A8C600AB
S31500002E10232607012324D700032481008320C10031
S31500002E202324E800138504008324410023A6E6003A
S31500002E30130101016FF09F9C631208148325C600DD
S31500002E4003268600B387F600032481002326B600F6
S31500002E5023A4C50093E617008320C1002322D700D0
S31500002E60138504003307F700832441002320F7006D
S31500002E70130101016FF09F9813781800B387D700EC
S31500002E8063100802032584FF3307A7408326C70083
S31500002E9003268700B387A7002326D60023A4C600EF
S31500002EA013E6170083A601C82322C70023A4E50062
S31500002EB0E3E6D7EA83A5C1CB13850400EFF01FC96B
S31500002EC06FF0DFE9130640016374D602130640056E
S31500002ED06364D60693D6C7001388F6061386E606FD
S31500002EE0131838006FF05FF0B387D7006FF01FEA52
S31500002EF01388C6051386B605131838006FF0DFEE83
S31500002F0023AAE50023A8E5002326A7002324A7007B
S31500002F10232217012320F8006FF05FE403A5450084
S31500002F2013562640930710003396C7003366A60053
S31500002F3023A2C5006FF0DFED13064015636CD600C3
S31500002F4093D6F7001388860713867607131838007A
S31500002F506FF09FE913064055636CD60093D62701A0
S31500002F601388D6071386C607131838006FF0DFE7F5
S31500002F701308803F1306E0076FF01FE793E617007C
S31500002F802322D7002320F6006FF05FDD130101FE38
S31500002F902328210103A90500232C8100232A91005F
S31500002FA0232E110023263101232441011384050019
S31500002FB09304050063020904832909006388090252
S31500002FC003AA0900630E0A0083250A00638405002C
S31500002FD0EFF0DFFB93050A0013850400EFF05FCAEC
S31500002FE09385090013850400EFF09FC99305090036
S31500002FF013850400EFF0DFC8930504000324810164
S315000030008320C101032901018329C100032A81000C
S315000030101385040083244101130101026FF05FC68A
S3150000302083A781C76384A72483274502130101FD73
S315000030302322910223261102232481022320210325
S31500003040232E3101232C4101232A5101232861011A
S31500003050232671012324810193040500638A071C3A
S3150000306083A5C700638405041309000093090008BB
S31500003070B387250103A40700630004029305040037
S315000030800324040013850400EFF09FBFE31804FE39
S3150000309083A7440283A5C70013094900E31A39FD33
S315000030A013850400EFF0DFBD83A7440283A5070064
S315000030B06380051C13850400EFF09FBC83A54401C3
S315000030C06386050013850400EFF09FBB83A74402C7
S315000030D0638807009385070013850400EFF05FBA45
S315000030E083A584036386050013850400EFF05FB9AA
S315000030F083A5C4036386050013850400EFF05FB85B
S3150000310083A504046386050013850400EFF05FB70A
S3150000311083A5C4056386050013850400EFF05FB63A
S3150000312083A584056386050013850400EFF05FB56B
S3150000313083A544036386050013850400EFF05FB49E
S3150000314083A78401638C070E83A78402138504007A
S31500003150E780070003A484046302040E0329040025
S31500003160630C0908832909006382090803AA090078
S3150000317063080A06832A0A00638E0A0403AB0A0060
S3150000318063040B04832B0B00638A0B0203AC0B0056
S3150000319063000C0283250C0063860500138504007A
S315000031A0EFF0DFDE93050C0013850400EFF05FAD52
S315000031B093850B0013850400EFF09FAC93050B007D
S315000031C013850400EFF0DFAB93850A001385040036
S315000031D0EFF01FAB93050A0013850400EFF05FAA1A
S315000031E09385090013850400EFF09FA99305090054
S315000031F013850400EFF0DFA8930504000324810281
S315000032008320C102032901028329C101032A810106
S31500003210832A4101032B0101832BC100032C81006A
S315000032201385040083244102130101036FF05FA597
S3150000323083254501E39805E86FF09FEA8320C102E4
S315000032400324810283244102032901028329C10147
S31500003250032A8101832A4101032B0101832BC1002B
S31500003260032C8100130101036780000067800000C2
S3150000327083A54401E39805E46FF0DFE50000000054
S315000032807300100083A601CD93070500638606022E
S3150000329003A7C1CC630C070203A581CC6304050414
S315000032A0B307F50063F6E70023A4F1CC67800000BE
S315000032B01305F0FF67800000138601EE23A8C1CC3A
S315000032C003A7C1CC938601EEE31807FC03A701D040
S315000032D0B7E5FFFF3307B70023A6E1CC03A581CCF2
S315000032E0E31005FC23A4D1CC138506006FF05FFB29
S309000032F0640400006C
S309000032F420040000AC
S315000032F800000000000000000000000000000000C0
S3150000330800000000000000000000000000000000AF
S31500003318000000000000000000000000000000009F
S31500003328000000000000000000000000000000008F
S31500003338000000000000000000000000000000007F
S31500003348000000000000000000000000000000006F
S31500003358000000000000000000000000000000005F
S3150000336860330000603300006833000068330000F3
S3150000337870330000703300007833000078330000A3
S315000033888033000080330000883300008833000053
S315000033989033000090330000983300009833000003
S315000033A8A0330000A0330000A8330000A8330000B3
S315000033B8B0330000B0330000B8330000B833000063
S315000033C8C0330000C0330000C8330000C833000013
S315000033D8D0330000D0330000D8330000D8330000C3
S315000033E8E0330000E0330000E8330000E833000073
S315000033F8F0330000F0330000F8330000F833000023
S3150000340800340000003400000834000008340000CE
S31500003418103400001034000018340000183400007E
S31500003428203400002034000028340000283400002E
S3150000343830340000303400003834000038340000DE
S31500003448403400004034000048340000483400008E
S31500003458503400005034000058340000583400003E
S3150000346860340000603400006834000068340000EE
S31500003478703400007034000078340000783400009E
S31500003488803400008034000088340000883400004E
S3150000349890340000903400009834000098340000FE
S315000034A8A0340000A0340000A8340000A8340000AE
S315000034B8B0340000B0340000B8340000B83400005E
S315000034C8C0340000C0340000C8340000C83400000E
S315000034D8D0340000D0340000D8340000D8340000BE
S315000034E8E0340000E0340000E8340000E83400006E
S315000034F8F0340000F0340000F8340000F83400001E
S3150000350800350000003500000835000008350000C9
S315000035181035000010350000183500001835000079
S315000035282035000020350000283500002835000029
S3150000353830350000303500003835000038350000D9
S315000035484035000040350000483500004835000089
S315000035585035000050350000583500005835000039
S3150000356860350000603500006835000068350000E9
S315000035787035000070350000783500007835000099
S315000035888035000080350000883500008835000049
S3150000359890350000903500009835000098350000F9
S315000035A8A0350000A0350000A8350000A8350000A9
S315000035B8B0350000B0350000B8350000B835000059
S315000035C8C0350000C0350000C8350000C835000009
S315000035D8D0350000D0350000D8350000D8350000B9
S315000035E8E0350000E0350000E8350000E835000069
S315000035F8F0350000F0350000F8350000F835000019
S3150000360800360000003600000836000008360000C4
S315000036181036000010360000183600001836000074
S315000036282036000020360000283600002836000024
S3150000363830360000303600003836000038360000D4
S315000036484036000040360000483600004836000084
S315000036585036000050360000583600005836000034
S3150000366860360000603600006836000068360000E4
S315000036787036000070360000783600007836000094
S315000036888036000080360000883600008836000044
S3150000369890360000903600009836000098360000F4
S315000036A8A0360000A0360000A8360000A8360000A4
S315000036B8B0360000B0360000B8360000B836000054
S315000036C8C0360000C0360000C8360000C836000004
S315000036D8D0360000D0360000D8360000D8360000B4
S315000036E8E0360000E0360000E8360000E836000064
S315000036F8F0360000F0360000F8360000F836000014
S3150000370800370000003700000837000008370000BF
S31500003718103700001037000018370000183700006F
S31500003728203700002037000028370000283700001F
S3150000373830370000303700003837000038370000CF
S31500003748403700004037000048370000483700007F
S31500003758503700005037000058370000583700002F
S315000037680033000000000000903700000000F0FF62
S3110000377800330000FFFFFFFF000002000E
S30900003784000000003B
S70500000000FA
