S00B000072616D2E73726563D9
S3150000000097B100009381010E97020000938282153A
S3150000001073905230732440F163100402970200007B
S315000000209382421573905230EF40904D9712000024
S31500000030938242B6E7800200131324009702000061
S315000000409382420CB302530003A302000F00F00F89
S31500000050E31C03FE138E41E993133400B30E7E00B6
S31500000060138F4E0083AF0E0003210F00970200008E
S315000000709382421073905230732540F1E7800F004F
S31500000080130000001300000013000000130000001E
S31500000090130000001300000013000000130000000E
S315000000A013000000130000001300000013000000FE
S315000000B013000000130000001300000013000000EE
S315000000C013000000130000001300000013000000DE
S315000000D013000000130000001300000013000000CE
S315000000E013000000130000001300000013000000BE
S315000000F013000000130000001300000013000000AE
S3150000010073001000730010007300100073001000DD
S3150000011073001000730010007300100073001000CD
S3150000012073001000730010007300100073001000BD
S3150000013073001000730010007300100073001000AD
S3150000014013132500970300009383C3FBB3027300C8
S315000001500F00500F2FA00208130500006780000053
S3150000016073001000130000001300000013000000CD
S3150000017073202034130181F723201100232431003A
S315000001802326410023285100232A6100232C7100D5
S31500000190232E8100232091022322A1022324B102CF
S315000001A02326C1022328D102232AE102232CF102AD
S315000001B0232E0103232011052322210523243105A3
S315000001C02326410523285105232A6105232C710581
S315000001D0232E8105232091072322A1072324B1077B
S315000001E02326C1072328D107232AE107232CF10759
S315000001F073250030F325103473262034232EA106F0
S315000002002320B1082322C10863560600EF40D038E8
S315000002106F00C00093060100EF4090378320010075
S31500000220832181000322C1008322010103234101AE
S31500000230832381010324C101832401020325410292
S31500000240832581020326C102832601030327410376
S31500000250832781030328C10383280104032941045A
S3150000026083298104032AC104832A0105032B41053E
S31500000270832B8105032CC105832C0106032D410622
S31500000280832D8106032EC106832E0107032FC10786
S31500000290832F010873100F3073901F34032F41070B
S315000002A0832F8107130181087300203000000000AE
S315000002B00000000000000000000000000000000038
S315000002C00000000000000000000000000000000028
S315000002D00000000000000000000000000000000018
S315000002E00000000000000000000000000000000008
S315000002F000000000000000000000000000000000F8
S3150000030000000000000000000000000000000000E7
S3150000031000000000000000000000000000000000D7
S3150000032000000000000000000000000000000000C7
S3150000033000000000000000000000000000000000B7
S3150000034000000000000000000000000000000000A7
S31500000350130101812326117E2324817E2322917E8F
S315000003602320217F232E317D232C417D232A517D7D
S315000003702328617D2326717D2324817D2322917D7F
S315000003802320A17D37170000130101F91305010190
S31500000390B7F7FFFF93060782B386A6001386877E0C
S315000003A03386C6009306078213070782B386A60024
S315000003B03307A7009385477EB385B600B307F700DA
S315000003C01305E1052326F10023A2077EEF2000583E
S315000003D013051000EF2000220327C1009307050034
S315000003E0130520002316F77EEF20C0200327C10047
S315000003F093070500130530002317F77EEF20801FB3
S315000004000327C10093070500130540002318F77E54
S31500000410EF20401E9307050013055000232CF10220
S31500000420EF20401D6308056C232EA102371700003C
S315000004301307078293060101B7F7FFFF3307D700BB
S31500000440B307F7002326F10083A7C77E639C0766E0
S315000004508327C1008397077F638C076A8327C103BD
S3150000046037180000930801011308088233081801A1
S31500000470B7F6FFFFB306D8001306010613F72700E9
S3150000048013F51700B335E0002326D10023AAC67E54
S31500000490231E010493F64700930805003305B500B3
S315000004A0638806001305150013150501135505018C
S315000004B09306007D33D5A602B7150000B7F6FFFFF9
S315000004C09385058213080101B38505019386C67ECF
S315000004D0B386D5001303000093050000930E1000A9
S315000004E0130E3000232AA1023398BE003378F80099
S315000004F093851500631A085A93864600E396C5FF4E
S31500000500639608266310072A93F747006388070255
S31500000510371700001307078293060101B7F7FFFF9D
S315000005203307D700B307F700032601038395C77E79
S31500000530032541032326F100EF101028930710002E
S31500000540232CF102B7140000EF20803613070101B7
S3150000055037F4FFFF93870482B387E7001305C47E51
S315000005603385A700EF00D07D13070101938704822E
S31500000570B387E700B38787002326F100EF20803496
S315000005808327C100930500000395C77EEF2000294D
S315000005908327C100930505000395E77EEF20002819
S315000005A08327C100930505000395077FEF200027E9
S315000005B09305050003154103EF204026B787000089
S315000005C0938757B013090500630EF55663E6A72413
S315000005D0B72700009387278F630AF558B75700009F
S315000005E09387F7EA631EF55817A50000130545D350
S315000005F0EF50C06F930C2000138B81C983270B002B
S31500000600130D0000930B0000638E072237170000BE
S315000006101307078293060101B7F7FFFF3307D700D9
S31500000620B307F700939C1C002326F10097A7000050
S315000006309387C7F6371C0000B38C970197AA000072
S31500000640938A8AD617AA0000130A0AD997A9000026
S315000006509389C9DB6F0040040327C100B307740107
S3150000066093972700B307F700B307FC0083D7C78229
S31500000670938B1B0003270B00B387A701939B0B01EA
S3150000068093940701139D070193DB0B0193D4040197
S31500000690135D0D4163FAEB1A8327C10013944B00D7
S315000006A0B304740193942400B3849700B3049C00AC
S315000006B083A7C4802396048293F7170063880702F2
S315000006C003D6648283D60C006302D60293850B00A0
S315000006D013850A00EF20903613054000EF20406C8A
S315000006E083D7C482938717002396F4828327C10099
S315000006F0B304740193942400B3849700B3049C005C
S3150000070083A7C48013F72700630A070203D68482EF
S3150000071083D6CC006304D60293850B0013050A002A
S31500000720EF20D03113058000EF20806703D7C48205
S3150000073083A7C480130717002396E48293F7470024
S31500000740E38C07F08327C1003304740113142400DB
S315000007503384870033048C000356A48283D68C012D
S315000007606316D6088357C4826FF09FF037170000D0
S3150000077093060101130707823307D700B7F7FFFF78
S31500000780B307F7000396C77E83A5877F2326F1006C
S31500000790EF0010438327C1032320A10413F727008A
S315000007A0E30407D6371700009306010113070782F3
S315000007B03307D700B7F7FFFFB307F7002326F1008B
S315000007C00327C1008397E77E032541030316C77EEF
S315000007D08325C77F9397070133E6C7009306410435
S315000007E0EF00905E8327C1036FF01FD293850B0045
S315000007F013850900EF20902413050001EF20405ACD
S315000008008357C482938717009397070193D70701ED
S315000008102316F4826FF0DFE5B7970000938727A0D1
S31500000820630CF532B7F700009387579F631AF534C8
S3150000083017A500001305C5B1EF50404B930C3000CF
S315000008406FF09FDB93040000EF200006B384A40042
S315000008509305090017A50000130545BEEF20101EDD
S315000008608327C1039394040193D4044113F717001B
S31500000870630C070603270B006308070637170000FB
S315000008801307078293060101B7F7FFFF3307D70067
S31500000890B307F700130400002326F100B719000080
S315000008A017A90000130949BB0327C1009317440089
S315000008B0B387870093972700B307F700B387F9003C
S315000008C003D667829305040013050900EF2010176D
S315000008D01304140083270B0013140401135404019A
S315000008E0E364F4FC8327C10313F72700630C0706B0
S315000008F003270B006302072437170000130707823C
S3150000090093060101B7F7FFFF3307D700B307F700D8
S31500000910130400002326F100B719000017A90000F0
S31500000920130949B50327C10093174400B38787000D
S3150000093093972700B307F700B387F90003D687829A
S315000009409305040013050900EF20500F130414004B
S3150000095083270B001314040113540401E364F4FC0D
S315000009608327C10393F74700638A070683270B0093
S3150000097013040000638C070C371700001307078267
S3150000098093060101B7F7FFFF3307D700B307F70058
S315000009902326F100B719000017A90000130949AF73
S315000009A00327C10093174400B38787009397270056
S315000009B0B307F700B387F90003D6A78293050400AF
S315000009C013050900EF2090071304140083270B007A
S315000009D01314040113540401E364F4FC83270B008D
S315000009E01304000063840706371700001307078205
S315000009F093060101B7F7FFFF3307D700B307F700E8
S31500000A002326F100B719000017A90000130909AA47
S31500000A100327C10093174400B387870093972700E5
S31500000A20B307F700B387F90003D64782930504009E
S31500000A3013050900EF2090001304140083270B0010
S31500000A401314040113540401E364F4FC638A040CD4
S31500000A506358900A17A50000130585ABEF500029CF
S31500000A601305E105EF105071130101078320C17EC4
S31500000A700324817E8324417E0329017E8329C17D4F
S31500000A80032A817D832A417D032B017D832BC17C33
S31500000A90032C817C832C417C032D017C13050000F3
S31500000AA01301017F678000003308A30213031300BC
S31500000AB013130301135303013308060123A606018A
S31500000AC06FF09FA313071000E39AE7988327C100EE
S31500000AD08397077FE39407980327C100B737153438
S31500000AE0938757412326F77E930760062318F77EE0
S31500000AF06FF0DF9693077000232EF1026FF01F93BD
S31500000B0017A500001305C5A1EF50401E6FF05FF555
S31500000B100327C100930760062318F77E6FF01F9422
S31500000B2017A500001305459AEF50401C1305200039
S31500000B30EF2000276FF0DFF293F74700E38007EA24
S31500000B406FF0DFF0179500001305C57AEF50001A15
S31500000B50930C10006FF05FAA179500001305C57679
S31500000B60EF50C018930C00006FF01FA917A50000E6
S31500000B701305C580EF508017930C40006FF0DFA778
S31500000B80B70401009384F4FF138B81C96FF0DFCBA8
S31500000B90EF4000171304010093020000639C02005B
S31500000BA0138501CC13868104B306A64093D536007F
S31500000BB0EF400016938201E223A08200EF40001866
S31500000BC0EF400014EF408039EF40803EEF40802731
S31500000BD017550000130585D6EF40D051EF40905BC6
S31500000BE0EF400012938281CE03A50200938201CAD0
S31500000BF083A5020013060000EFF08FF5EF40D050FA
S31500000C00730010000000000000000000938741C739
S31500000C10138741C7630AF70093070000638607003E
S31500000C20138541C76780070067800000938741C727
S31500000C30938541C7B385F54093D7254093D5F501F4
S31500000C40B385F50093D51540638A05009307000028
S31500000C5063860700138541C7678007006780000029
S31500000C60130101FF2324810083C781E2232611009B
S31500000C7063920702EFF09FF993070000638807006D
S31500000C80138541CB97000000E70000009307100092
S31500000C902384F1E28320C1000324810013010101B2
S31500000CA0678000009307000063840702130101FFB9
S31500000CB09385C1E2138541CB2326110097000000DE
S31500000CC0E70000008320C100130101016FF01FF649
S31500000CD06FF0DFF5630A06000315250083972500EC
S31500000CE03305F54067800000831705001397070159
S31500000CF0135707011357870093F707F0B3E7E70089
S31500000D002310F500839705000315250013970701A7
S31500000D10135707011357870093F707F0B3E7E70068
S31500000D202390F500839725003305F5406780000082
S31500000D30130101FE232C810003140500232E11004C
S31500000D40232A910093577440232821012326310139
S31500000D5093F71700638207028320C1011375F40716
S31500000D600324810183244101032901018329C10050
S31500000D7013010102678000009384050093553440F7
S31500000D8093F5F500139745009376740083D7840393
S31500000D9093090500B365B700638C060413071000BA
S31500000DA0638AE608131504011355050113090400A7
S31500000DB093850700EF10900D93070500137404F058
S31500000DC01375F90733648500239CF4021364040841
S31500000DD0239089008320C1010324810183244101DA
S31500000DE0032901018329C100130101026780000064
S31500000DF0930620021387050063D4D500130720024B
S31500000E00839624000396040083A5440103A5840168
S31500000E101377F70FEF10406083D7E403131905012A
S31500000E2013590941639C070283D78403239FA402B5
S31500000E306FF01FF81386070013858402EF10001465
S31500000E4083D7C40313190501135909416398070091
S31500000E5083D78403239EA4026FF09FF583D7840370
S31500000E606FF01FF5130101FF232291009384050003
S31500000E70930506002326110023248100130406008F
S31500000E80EFF01FEB9307050093050400138504009C
S31500000E9013840700EFF0DFE98320C1003305A44087
S31500000EA003248100832441001301010167800000AF
S31500000EB003970500839725002310E5002311F5000D
S31500000EC067800000032806009308880063F6E8049C
S31500000ED003A70600130347006370F30423201601DB
S31500000EE08327050083980500039625002320F80034
S31500000EF0232005012322E80083A706001305080026
S31500000F009387470023A0F600832748002390170104
S31500000F102391C7006780000013080000130508002E
S31500000F2067800000930705000325050083A6470098
S31500000F30032645000327050023A2C7002322D50068
S31500000F4023A0E700232005006780000003A64500D4
S31500000F508326450003A705002322C50023A2D5004A
S31500000F602320E50023A0A500678000000397250045
S31500000F7063420702631805006F008004032505001D
S31500000F80630C05028327450083972700E398E7FE55
S31500000F906780000063020502039705006F00C0002A
S31500000FA003250500630C05008327450083C707005A
S31500000FB0E398E7FE678000001305000067800000E5
S31500000FC06780000063000502130700006F008000C1
S31500000FD013850700832705002320E5001307050076
S31500000FE0E39807FE67800000130101FD23229102AA
S31500000FF0232A510123267101232291012320A101D5
S31500001000232611022324810223202103232E3101CA
S31500001010232C410123286101232481019304050027
S31500001020938B0500130D0600930A1000930C100015
S315000010306380040C130C000013090000130B00005E
S31500001040130C1C00938704001304000083A70700F9
S315000010501304140063840700E39A8AFE138A0400CB
S3150000106093890A0093840700630E0402638E0904C1
S31500001070638C040483A5440003254A0013060D006F
S31500001080E7800B006352A0049387040083A4040046
S315000010909389F9FF630409022320F90013890700E5
S315000010A0E31604FC638A0902638A04029387040038
S315000010B09389F9FF83A40400E31009FE138B07004C
S315000010C0138907006FF0DFFD93070A001304F4FF8E
S315000010D0032A0A006FF01FFCE39404F6232009009C
S315000010E0630C9C01939A1A0093040B006FF05FF453
S315000010F023200000730010008320C1020324810214
S3150000110083244102032901028329C101032A8101A3
S31500001110832A4101832BC100032C8100832C4100CB
S31500001120032D010013050B00032B0101130101031D
S31500001130678000001306050003154500130101FE34
S31500001140232C8100232A9100232E1100232821011C
S31500001150232631012324410123225101032446027F
S31500001160938405006354A02493080000130900002B
S31500001170130300001308000013FAF80F63C2041EDD
S31500001180630C0422930704006F00C00083A70700C6
S315000011906388070003A7470003172700E31897FE95
S315000011A0930600006F00C0009306040013040700B6
S315000011B0032704002320D400E31807FE6384071CDA
S315000011C003A74700130313001313030103170700B4
S315000011D01353030193761700638C06001357974049
S315000011E0137717003308E80013180801135808018D
S315000011F003A70700630C07008326070023A0D70078
S31500001200832704002320F7002320E40063C804009A
S31500001210938414009394040193D404419388180092
S315000012209398080193D80841E31815F51313230082
S3150000123033092341330828011319080113590901F9
S31500001240635CB00013050400970500009385C5C1D3
S31500001250EFF09FD9130405008327040093090400C7
S3150000126083AA070003A7470003A64A0083A60A002D
S3150000127023A2C70023A2EA0023A0D70023A00A00C6
S3150000128063C0040C83A7490083972700638A9700ED
S3150000129083A90900E39809FE8329040063840902EF
S315000012A0832744009305090003950700EF100057B4
S315000012B083A9090013090500E39409FE83290400A4
S315000012C003A74A0083A6490083A709001305040063
S315000012D023A2DA0023A2E90023A0FA0013060000E5
S315000012E023A05901970500009385059FEFF0DFCFF6
S315000012F003240500930405006300040283A7440049
S315000013009305090003950700EF10405103240400DC
S3150000131013090500E31404FE8320C101032481019F
S31500001320832441018329C100032A8100832A4100C5
S31500001330130509000329010113010102678000005A
S3150000134083A7490083C70700E38C47F583A90900F3
S31500001350E39809FE83290400E39409F46FF09FF6ED
S31500001360630C0404930704006F00C00083A7070002
S31500001370E38807E203A7470003470700E31847FF90
S315000013806FF01FE283A7460013091900131909011C
S31500001390838717001359090193F717003308F800DC
S315000013A013180801135808016FF05FE613090000CF
S315000013B0130A00006FF0DFE88327000073001000B7
S315000013C0130E4001335EC503B787FFFF23A0050058
S315000013D01387070893860501138505001383850087
S315000013E0130EEEFF131F3E00338FE50123A2E50126
S315000013F0931F2E002310EF0023110F00B30FFF01E0
S3150000140013074F0063F6E61393088F0063F2F81391
S3150000141023A6E50023A4050023A0650093C7F7FFD4
S315000014201307F0FF2312EF002313FF00630A0E06D3
S3150000143093120601B783FFFF93D20201130800003F
S3150000144093C3F3FF1317080113570701B347570058
S31500001450939737001377770093F78707B3E7E7008B
S3150000146013978700938E860013081800938548000B
S31500001470B367F70063F4EE0363F2F50323A0660097
S315000014802320D50023A216012390F800239178008B
S31500001490138306009388050093860E00E3140EFB63
S315000014A003280300630E080693075000B7480000A0
S315000014B0335EFE0213070020930610009388F8FFA0
S315000014C06F00800283270800130707102391D500B9
S315000014D01317070113030800938616001357070115
S315000014E06380070413880700B345D6009377077017
S315000014F0B3E7B700B3F7170183254300E3E4C6FD5E
S315000015002391F50083270800130707101317070117
S31500001510130308009386160013570701E39407FC8C
S315000015201306000097F5FFFF9385057B6FF0DFAB91
S315000015309306030093080700130300006FF01FEFE4
S31500001540130101FF232021010329C50123261100D0
S315000015502324810023229100232C0502232E050239
S3150000156063060904130405009304000093051000A4
S3150000157013050400EFF01FBC83558403EF10001120
S315000015809305F0FF231CA40213050400EFF09FBA95
S3150000159083558403EF10800F231CA4026394040078
S315000015A0231DA40293841400E31299FC8320C10036
S315000015B00324810083244100032901001305000050
S315000015C01301010167800000130101FF232681003A
S315000015D02324910023222101232031011308050031
S315000015E01384060063140600130610009385F5FFA6
S315000015F093F3C5FF138943009307000063000810A7
S3150000160013850700938717003387F70213173700F0
S31500001610E36807FFB306A502930905009396160033
S31500001620B303D9006300050A370E010093020000D8
S31500001630930F0000130F1000B30E7940130EFEFF38
S315000016409304F5FF93951200B385750013080F00F8
S3150000165093080000330606039317080193D7070182
S315000016603383BE009385250093881800130818005D
S315000016701357F641135707013306E6003376C601C2
S315000016803306E6403387C7001317070113570701D0
S31500001690B307F700239FE5FE93F7F70F2310F30038
S315000016A0E3EAA8FA130F1F0093070000630405007E
S315000016B093870400938F1F00338FE701B382A20044
S315000016C0E3E2AFF8B387D3009387F7FF93F7C7FF3B
S315000016D09387470023222401232034012324740006
S315000016E02326F4000324C10083248100032941003A
S315000016F083290100130101016780000093836300C1
S315000017009309F0FF1305F0FF930620006FF0DFF159
S31500001710930E050063060508330FA04093182500B5
S31500001720B3881501931F2F00130300001305000053
S315000017301307000093050000131F3F00338E1F019F
S3150000174093070E006F008001131508019387470069
S315000017501355054193050000638CF80293060700B4
S3150000176003A707001315050113550501B3A6E600E7
S31500001770B385E5001308A5003305D500E346B6FC9E
S31500001780131505019387470013550541E398F8FCA7
S3150000179013031300B308EE41E3926EFA678000006C
S315000017A01305000067800000630C0504B30EA0401B
S315000017B013181500139F1E003308060113030000BB
S315000017C093080000939E2E00330EE80113162300A3
S315000017D03386C50093070E000397070013064600DD
S315000017E0938727003307D702232EE6FEE316F8FE7B
S315000017F0938818003303A3003308DE41E31615FD72
S315000018006780000063060504B308A0409316150020
S3150000181013160601B386D500139318001356060156
S3150000182093050000939828003308D3009307080017
S3150000183003D70700938727003307E600239FE7FEB9
S31500001840E398F6FE93851500B3061841E31EB5FC32
S31500001850678000006306050A130101FE93870500F1
S315000018602328210113192500232C81002326310169
S31500001870130405009305000093090600138507006D
S3150000188013060900232A9100232E110093840600D3
S31500001890EF40001A131E140093050500B306250138
S315000018A0338EC401930E000013981E00338809017D
S315000018B093870400930800000317080003930700AA
S315000018C0938727001308280033076702B388E800C8
S315000018D0E314FEFE23A0150193854500B38E8E000A
S315000018E0E394B6FC8320C1010324810183244101D2
S315000018F0032901018329C100130101026780000049
S315000019006780000063040510130101FD2324810292
S31500001910131415002322910223202103232E3101C3
S31500001920232C4101232A5101232861012326710119
S315000019302324810123261102130B050013890500B8
S3150000194093890600930A0600B3048600131A25003D
S31500001950930B0000130C000013982B0033080901A9
S3150000196013060A001305080093050000EF40400C1B
S315000019701308050013860900930800009306060065
S3150000198093870A0093050000039707000395060056
S3150000199093872700B38686003307A702B385E50041
S315000019A0E394F4FE2320B800938718001308480038
S315000019B0130626006306FB00938807006FF01FFCE2
S315000019C093071C00B38A8A00B38B6B01B38484002F
S315000019D063061C01138C07006FF01FF88320C102F9
S315000019E00324810283244102032901028329C101C0
S315000019F0032A8101832A4101032B0101832BC100A4
S31500001A00032C81001301010367800000678000003A
S31500001A10630E0510130101FD232E310193191500E4
S31500001A20232481022322910223202103232C410116
S31500001A30232A5101232861012326710123248101D0
S31500001A4023261102130B0500138405009384060058
S31500001A50930A0600330A360113192500930B00007A
S31500001A60130C000013982B00330804011306090019
S31500001A701305080093050000EF30907B130805005E
S31500001A8013860400930800009305060093860A0057
S31500001A90130500000397050083970600938626002A
S31500001AA0B3853501B387E70213D7274093D757404D
S31500001AB01377F70093F7F707B307F7023305F50037
S31500001AC0E31ADAFC2320A8009387180013084800BD
S31500001AD0130626006306FB00938807006FF0DFFA03
S31500001AE093071C00B38A3A01B38B6B01330A3A01A0
S31500001AF063061C01138C07006FF0DFF68320C1021A
S31500001B000324810283244102032901028329C1019E
S31500001B10032A8101832A4101032B0101832BC10082
S31500001B20032C810013010103678000006780000019
S31500001B30130101FD2322910223202103232C4101BD
S31500001B40232A510137F9FFFF23261102232481029C
S31500001B50232E3101232861012326710123248101CB
S31500001B60232291012320A101938A0500130A06006E
S31500001B70938406003369270163060538931515001B
S31500001B80B30BA040B385C5009319070113931B003F
S31500001B909308050093D9090113860500130B00006D
S31500001BA0939B2B003308C3009307080083D60700D6
S31500001BB093872700B386D900239FD7FEE318F6FE46
S31500001BC013041B003306784163868800130B040058
S31500001BD06FF05FFD13050000930800003308B300A3
S31500001BE0131625003306560193070800839607004F
S31500001BF01306460093872700B386E602232ED6FEF9
S31500001C00E396B7FE9387180033058500B305784140
S31500001C1063866801938807006FF05FFC131C24003D
S31500001C20338C8A01B30C804013080C0013050000A6
S31500001C30130700001306000013030000939C3C00EA
S31500001C40B3880B01938708006F0080011395050187
S31500001C50938747001355054113060000630CF802ED
S31500001C609306070003A70700131505011355050181
S31500001C70B3A6E6003306E6009305A5003305D500B6
S31500001C80E346C9FC13150501938747001355054123
S31500001C90E318F8FC93071300338898416306630141
S31500001CA0138307006FF0DFF993050000EF0010378C
S31500001CB013060A00130D050093860400130504009D
S31500001CC093850A00EFF01FB9130500001307000003
S31500001CD01306000013030000B3888B0193870800E6
S31500001CE06F008001131508019387470013550541BE
S31500001CF013060000630CFC029306070003A7070007
S31500001D001315050113550501B3A6E6003306E600D3
S31500001D101308A5003305D500E346C9FC13150501D4
S31500001D209387470013550541E318FCFC93071300FE
S31500001D30338C984163066301138307006FF0DFF964
S31500001D4093050D00EF00902D93860400130B0500FC
S31500001D5013060A001305040093850A00EFF09FBAE4
S31500001D60130E000013050000930700009306000001
S31500001D701303000013162E003386CA001308000052
S31500001D806F00C0011395080113081800135505418B
S31500001D909306000013064600637E88021387070039
S31500001DA08327060013150501135505013327F70090
S31500001DB0B386F6009308A5003305E500E344D9FC95
S31500001DC0131505011308180013550541130646009F
S31500001DD0E36688FC13031300330E8E00E36C83F86E
S31500001DE093050B00EF0090239307050093860400EC
S31500001DF01305040013060A0093850A00938407005E
S31500001E00EFF01FC1130E000013050000930700003A
S31500001E10930600001303000013162E003386CA0033
S31500001E20130800006F00C00113950801130818007D
S31500001E30135505419306000013064600637E88028B
S31500001E40138707008327060013150501135505019F
S31500001E503327F700B386F6009308A5003305E5009F
S31500001E60E344D9FC13150501130818001355054161
S31500001E7013064600E36688FC13031300330E8E0038
S31500001E80E36C83F893850400EF0050199305000076
S31500001E901306000093971500B307FA009306000097
S31500001EA003D7070093872700938616003307374129
S31500001EB0239FE7FEE3E686FE13061600B38585003C
S31500001EC0E36A86FC8320C1020324810213150501FF
S31500001ED083244102032901028329C101032A8101C6
S31500001EE0832A4101032B0101832BC100032C8100AE
S31500001EF0832C4100032D01001355054113010103F5
S31500001F006780000093050000EF00501193860400DF
S31500001F1013060A001304050093850A001305000042
S31500001F20EFF05F939305040013050000EF00100F18
S31500001F309386040013060A001304050093850A001D
S31500001F4013050000EFF01F9C930504001305000025
S31500001F50EF00D00C1304050093850A009386040055
S31500001F6013060A0013050000EFF09FAA930504006C
S31500001F7013050000EF00900A6FF0DFF4130101FF74
S31500001F802324810083268500130406001387050099
S31500001F90032645008325C5000325050023261100D9
S31500001FA0EFF01FB993050400032481008320C100CC
S31500001FB0130101016F0090069308F5FF93071000C7
S31500001FC01308060063F4171393851500939505010E
S31500001FD093D50501130101FF93D735002326810010
S31500001FE0130E700013F7750093060000978E00001D
S31500001FF0938E0E681303400013061000130FC002E1
S3150000200093F73700630EC7076360E30C1307D7FF28
S31500002010131707019397270013570701B387FE008D
S31500002020636CE60883A70701930F900013048000F2
S31500002030B38FF60163F41F07B306D80013870600B3
S31500002040B383870083C2070093871700130717001F
S31500002050A30F57FEE398F3FE9385150093950501AC
S31500002060B386860093D505012380E60193D7350014
S3150000207013F7750093860F0093F73700E316C7F939
S3150000208093972700930F9000B387FE00B38FF60156
S3150000209083A7070313048000E3E01FFB63F2A60493
S315000020A00324C1003306D540930500003305D8004C
S315000020B0130101016F30D01783A70700930F50005B
S315000020C0130440006FF0DFF693972700B387FE00F6
S315000020D083A70702930F9000130480006FF05FF54B
S315000020E00324C1001301010167800000930600006C
S315000020F03306D540930500003305D8006F305013E2
S3150000210083270500130805001305000083C6070092
S3150000211013870700638C060C1305C002138717008C
S315000021206388A62A83A80500138606FD1376F60F94
S315000021301303900093881800636EC30A23A0150149
S3150000214083C617006380061693872700638AA61442
S31500002150138606FD1305E002930890001303C002E0
S315000021601376F60F6386A60263E0C80C8346170053
S315000021701386170013870700638406126388662890
S3150000218093070600138606FD1376F60FE39EA6FC5C
S3150000219083A60501130550009386160023A8D500D3
S315000021A08346170013870700638206041307C002DD
S315000021B0138617006388E6201305500493089000E1
S315000021C01303C002138706FD93F6F60D1377F70F78
S315000021D0638EA60C63F0E81A83A745011307060071
S315000021E0130510009387170023AAF5002320E800A3
S315000021F0678000001306B0026386C6041306D00289
S315000022006382C6041306E0026384C61883A74500EA
S3150000221023A01501130510009387170023A2F500CC
S315000022202320E8006780000083A6050113870700C6
S31500002230130510009387160023A8F5002320E80055
S315000022406780000023A0150183C817006386081A5B
S31500002250138727006382A81A03A68500938608FDC4
S3150000226093F6F60F1305900013061600637ED5004D
S315000022709306E002638CD81223A4C5001305100050
S315000022802320E8006780000023A4C50083C627003A
S31500002290638A06001306C00293071700E39AC6EA8C
S315000022A013870700130540006FF05FF403A745018D
S315000022B01307170023AAE50083C7170063840712D4
S315000022C01305C002130716006380A71283A6C50074
S315000022D0938757FD93F7D70F9386160023A6D5004D
S315000022E063880700130510002320E80067800000BC
S315000022F083471600638E070E13072600638AA70E10
S3150000230083A68501938707FD93F7F70F938616003B
S315000023109308900023ACD500E3E6F8FC834626003C
S31500002320638E060A930736006388A60A1306900092
S315000023309308C002938606FD93F6F60F637ED600D9
S3150000234083A6450013870700130510009387160020
S3150000235023A2F5006FF09FE9834617001385170047
S3150000236013870700638A0606638C16099307050020
S315000023706FF05FFC83C6170013071600930706006D
S315000023806382060463826604130607006FF09FE308
S3150000239023A0150183C6170063880602138627004B
S315000023A06382A602930707006FF01FE123A4C5000E
S315000023B083C62700638A06009307C0021306170028
S315000023C0E392F6FE13070600130550006FF01FE2B6
S315000023D0130500006FF09FE11387070013057000D7
S315000023E06FF0DFE013070600130530006FF01FE003
S315000023F0130560006FF09FDF130520006FF01FDFED
S3150000240013070500130570006FF05FDE1307060063
S31500002410130540006FF09FDD130101F8232C8106A0
S31500002420232A91062328210723263107232441073F
S315000024302322510723206107232E1106232E71051F
S315000024401384050083C50500232681002328010285
S3150000245023280100232A0102232C0102232E010234
S31500002460232001042322010423240104232601043A
S31500002470232A0100232C0100232E01002320010220
S315000024802322010223240102232601021309010348
S31500002490130B0500930A0600138A0600930907002A
S315000024A093840700638E0512930BC1009305090000
S315000024B013850B00EFF0DFC4930701051318250001
S315000024C0338807010327C100832708FC0347070059
S315000024D0938717002320F8FCE31A07FC23268100C4
S315000024E0330B64018345040063726411130804000E
S315000024F01307C0026F00800083450800B3C755016B
S315000025006384E5002300F8000328C100330838017E
S3150000251023260101E36268FF834704002326810026
S31500002520930BC100638E07029305090013850B0008
S31500002530EFF01FBD93070105131625003386C7006C
S315000025400327C100832706FC03470700938717006C
S315000025502320F6FCE31A07FC232681006374640338
S315000025609306C0028347040033C747016384D7003C
S315000025702300E4000324C100330434012326810030
S31500002580E36264FF130401019309090003250400B3
S315000025909385040013044400EF008017930505009B
S315000025A003A5090093894900EF00801693040500EE
S315000025B0E31E89FC8320C107032481078324410786
S315000025C0032901078329C106032A8106832A4106B6
S315000025D0032B0106832BC105130101086780000048
S315000025E0330BA400E36464F16FF0DFF9E39E05F2B8
S315000025F06FF05FF99307500063E4A70417870000A4
S315000026001307070B131525003305E500832705007F
S31500002610B387E7006780070003A501CD6780000048
S3150000262003A5C1CD6780000003A581CD67800000AA
S3150000263003A5C1C96780000003A541CD67800000DE
S31500002640130500006780000093060500138505004A
S31500002650B7A5FFFF93078000938515003347D50084
S315000026609387F7FF135515001377170093F7F70FA6
S315000026703346B50093D61600630607001315060108
S3150000268013550501E39C07FC6780000093060500CF
S3150000269037A8FFFF1385050013F6F60F9307800092
S315000026A0130818003347C5009387F7FF1355150025
S315000026B01377170093F7F70FB34505011356160066
S315000026C0630607001395050113550501E39C07FCF6
S315000026D0B7A5FFFF93D68600930780009385150064
S315000026E03347D5009387F7FF135515001377170067
S315000026F093F7F70F3346B50093D616006306070027
S315000027001315060113550501E39C07FC67800000BD
S315000027101307050013160701B7A8FFFF1385050069
S31500002720135606019375F70F9307800093881800D8
S31500002730B346B5009387F7FF1355150093F61600B9
S3150000274093F7F70F3348150193D5150063860600F6
S315000027501315080113550501E39C07FC37A8FFFF75
S31500002760135686009307800013081800B346C50069
S315000027709387F7FF1355150093F6160093F7F70F97
S31500002780B345050113561600638606001395050129
S3150000279013550501E39C07FC1356070137A8FFFFF5
S315000027A013070600930780001376F60F1308180028
S315000027B0B346C5009387F7FF1355150093F6160029
S315000027C093F7F70FB3450501135616006386060007
S315000027D01395050113550501E39C07FCB7A5FFFFFB
S315000027E0135787009307800093851500B346E500CD
S315000027F09387F7FF1355150093F6160093F7F70F17
S315000028003346B500135717006386060013150601F5
S3150000281013550501E39C07FC67800000930605003D
S315000028201396060137A8FFFF138505001356060108
S3150000283093F6F60F93078000130818003347D50068
S315000028409387F7FF135515001377170093F7F70FC4
S31500002850B345050193D616006306070013950501D7
S3150000286013550501E39C07FCB7A5FFFF93568600A9
S3150000287093078000938515003347D5009387F7FFAC
S31500002880135515001377170093F7F70F3346B50066
S3150000289093D61600630607001315060113550501A6
S315000028A0E39C07FC678000001305000067800000BA
S315000028B0F32700C823A4F1CCF32700C023A6F1CC4C
S315000028C067800000F32700C823A0F1CCF32700C0DF
S315000028D023A2F1CC6780000003A641CC83A7C1CC1C
S315000028E083A601CC03A781CC63FAC704B307F640DD
S315000028F03387E640B7E6F5059385061033D5B7026C
S31500002900B3F7B702630207023716A9051306F65F87
S315000029109386F60FB387C7001307F7FF63E8F60041
S315000029201305A502E31807FE67800000B3F7B70298
S315000029301305B502E31007FE6FF01FFF9386F6FF3F
S31500002940B387C7403387E6406FF0DFFA130101FF14
S315000029501305100023261100EF008044371500FCF4
S31500002960EF00500C8320C100178500001305C5D564
S31500002970130101016F308037130101FF1785000035
S31500002980130585D523261100EF30403613000000CD
S31500002990130000006FF09FFF130101FA232C81043E
S315000029A0232A91042328210523263105232A91036E
S315000029B0232E1104232441052322510523206105DA
S315000029C0232E7103232C81032328A1032326B1037D
S315000029D09308E0042324010113090500138405006C
S315000029E0938C0600930407009389070063DCC822D2
S315000029F09307E0041305090093050400130600007D
S31500002A00930600002326F100EF10502A63400524A8
S31500002A1023A0040093050400130601011305090011
S31500002A20EF30003F032A0101832A41019384050008
S31500002A3013060000930600001304050093850A00A0
S31500002A4013050A00EF10500E138C090563080524C0
S31500002A50978B0000938B8B30130B0C00978D000027
S31500002A60938D4D30978700009387472F03A6070065
S31500002A7083A6470013050A0093850A00EF10000F8E
S31500002A8013060101EF30C03803A60D0083A64D00E2
S31500002A90232CA100232EB100EF00100703A60B0084
S31500002AA083A64B00130BFBFF23226101EF10902F2F
S31500002AB0EF20C012032A0101832A410113070503EF
S31500002AC0137DF70F93070005338967412300AB0198
S31500002AD0130600009306000013050A0093850A00FA
S31500002AE033093901EF105004E31E05F663728B2992
S31500002AF0938609006F008000034D0B002380A6011A
S31500002B00130B1B0093861600E3186CFF8327410006
S31500002B10330BFC40338B69018327C100338DF900E9
S31500002B208327810063940700330D2D0123A02C0118
S31500002B3063623D2363606D07978B0000938B0B22C6
S31500002B40637A8B0503AA0B0083AA4B006F008000F3
S31500002B5063026C0593860A0013050400938504003E
S31500002B6013060A00EF10102413068101EF30402AE5
S31500002B701304050093840500032581018325C10103
S31500002B80130B1B00EF20800513050503A30FABFEF7
S31500002B90E3706DFD63748D1D83470D00130790036D
S31500002BA09387570093F7F70F2300FD00637AF70228
S31500002BB093070D0093060003930510031306900375
S31500002BC02380D70063FEF90803C7F7FF9387F7FF53
S31500002BD0130717001377F70F2380E700E362E6FE7B
S31500002BE023000D008320C1050324810583244105AC
S31500002BF003290105032A8104832A4104032B0104C6
S31500002C00832BC103032C8103832C4103032D010372
S31500002C10832DC102138509008329C104130101060E
S31500002C20678000001347F6FF1357F741B377E600B6
S31500002C30130509009305040013060000930600001F
S31500002C402326F100EF109006E35405DC93071000ED
S31500002C5023A0F400B707008033C487006FF09FDB22
S31500002C602380B70003A70C001307170023A0EC006E
S31500002C70032781006308070003C70700E362E6F441
S31500002C806FF01FF663F4A9012300DD0003C70700F8
S31500002C90130D1D00E366E6F26FF09FF413050400C2
S31500002CA0938504001306000093060000EF10807061
S31500002CB0635AA00A978B0000938B4B0A03A60B005E
S31500002CC083A64B001305040093850400EF10900DB6
S31500002CD0978700009387870903AA070083AA4700FE
S31500002CE0930D050013060A0093860A00138D05004E
S31500002CF0232CA100232EB100EF10407B1309000006
S31500002D006358050603AB0B0083AB4B0013850D0020
S31500002D1093050D0013060B0093860B00EF10900829
S31500002D2013060A0093860A0013840D0093040D000F
S31500002D30930D0500138D0500EF1040771309F9FF79
S31500002D40E34605FC232CB101232EA101138B0900B8
S31500002D506FF09FDC238009006FF0DFE8A38709048A
S31500002D606FF05FE8138B0900130900006FF0DFDADC
S31500002D70138B09006FF05FDA13081000938741E4A4
S31500002D806FF09FC1130810006FF01FC113080000F9
S31500002D90938741E46FF05FC0130800006FF0DFBF58
S31500002DA0B73708FC1307F0FF23A4E700138701CE0B
S31500002DB0832607003365D5002320A70023A2A7009A
S31500002DC067800000B73708FC1307100023A4E7004C
S31500002DD023A20700678000009307050013850500FE
S31500002DE0638E070003A707002300B70003A70700A9
S31500002DF01307170023A0E700678000006F20905696
S31500002E00130101FE232C8100232A91002324410172
S31500002E1023225101232E11002328210123263101CB
S31500002E2093040500938A050013040600130A0002A2
S31500002E30635EC002930700003387FA00034707006A
S31500002E4063060700938717006FF01FFF63D687009E
S31500002E503304F4406F0080001304000093F726004B
S31500002E60130A000263840700130A000393F6160090
S31500002E70130900006398060213090400635C20012D
S31500002E8093050A0013850400EFF01FF51309F9FFF7
S31500002E906FF0DFFE130904006354040013090000F9
S31500002EA03304244193090900B3872941B387FA0003
S31500002EB083C50700638A050013850400EFF0DFF180
S31500002EC0938919006FF05FFE13090400635C20010B
S31500002ED093050A0013850400EFF01FF01309F9FFAC
S31500002EE06FF0DFFE63540400130400003305340161
S31500002EF08320C101032481018324410103290101A7
S31500002F008329C100032A8100832A4100130101029B
S31500002F1067800000130101FD232291022320210373
S31500002F202326110223248102232E3101232C410161
S31500002F3093040700138907006392050293070003B1
S31500002F409306090013060700930541002302F100CA
S31500002F50A3020100EFF0DFEA6F00000B9309050002
S31500002F6013840600638E06009307A0006318F6001C
S31500002F7063D60500B305B0406F008000130400005F
S31500002F80A30701009307F10093069000130868FC5D
S31500002F9033F7C50263F4E600330707011307070397
S31500002FA0A38FE7FE138AF7FF33D7C50263E8C50090
S31500002FB09305070093070A006FF09FFD630A04025A
S31500002FC06380040213772900630C07009305D0027F
S31500002FD013850900EFF05FE09384F4FF6F00400172
S31500002FE01307D002A30FEAFE13040000138AE7FFBB
S31500002FF0930609001386040093050A001385090049
S31500003000EFF01FE0330585008320C102032481020F
S3150000301083244102032901028329C101032A810174
S315000030201301010367800000130101FC232C8102B8
S31500003030232A910223282103232631032324410333
S315000030402322510323206103232E7101232C8101A6
S31500003050232E1102232A9101130C0500138B050060
S3150000306013040600930B000093045002930AD00247
S31500003070130A00039309A000177900001309C96613
S3150000308083470B00638E07146390971483461B00D7
S315000030906388061413071B006386961293070000C5
S315000030A06396560113072B0093071000130B0700B6
S315000030B003470B0093061B006318470193E727009D
S315000030C0138B06006FF0DFFE1307000093059000D8
S315000030D083460B0013081B00138606FD1375F60FB7
S315000030E063EAA50033073703130B08003307E6002E
S315000030F06FF01FFE130630076392C6028326040094
S31500003100930C44009305090063840600938506002A
S3150000311093860700130607006F00000A1306400691
S315000031206396C602930C440013081006930610001B
S315000031301306A0008325040013050C00EFF09FDDA5
S31500003140B38BAB0013840C006F00000913068007D5
S315000031506398C600930C4400130810066F004001E4
S3150000316013068005639CC600930C440013081004E4
S3150000317093060000130600016FF0DFFB13065007ED
S31500003180639AC600930C44001308100693060000C9
S315000031906FF01FFA130630066390C60483260400F8
S315000031A0930C4400A30601002306D1001306070072
S315000031B0938607009305C10013050C00EFF05FC46A
S315000031C06FF01FF8130B070083450B0013050C0067
S315000031D0938B1B00EFF05FC0130B1B006FF05FEAD1
S315000031E063060C0083270C00238007008320C1039D
S315000031F00324810383244103032901038329C10294
S31500003200032A8102832A4102032B0102032C810136
S31500003210832C410113850B00832BC101130101048B
S3150000322067800000930710002326F500232205007F
S31500003230930720002324F50067800000130101FC9A
S315000032402322B1022324C10293050500130641027D
S3150000325013050000232E11002326D1022328E102A4
S31500003260232AF102232C0103232E11032326C10056
S31500003270EFF09FDB8320C10113010104678000008A
S31500003280130101FB2326A100232CC1021305C10053
S315000032901306810323261102232ED1022320E104E3
S315000032A02322F1042324010523261105232EC10020
S315000032B0EFF09FD78320C10213010105678000004C
S315000032C0130101FB2326A100930506001305C10087
S315000032D01306C10323261102232ED1022320E10463
S315000032E02322F1042324010523261105232EC100E0
S315000032F0EFF09FD38320C102130101056780000010
S31500003300130500006780000037081000130101FE56
S315000033101308F8FF3377B800938806003378D8008F
S31500003320232C8100232A910013D4450193D4F5015F
S3150000333093D5460123263101131737009357D5013C
S31500003340131838009356D6011374F47F13F3F57FE0
S31500003350232E1100232821012324410193D8F801AB
S315000033609389040033E7E700931E350033E806012E
S31500003370131E3600B3056440638E14196356B016E7
S315000033806304031EB70680009307F07F3368D800F6
S31500003390630AF4349307800363C8B73E9307F001CA
S315000033A063C2B75293070002B387B7403319F800D8
S315000033B0B356BE00331EFE003369D900333EC0014A
S315000033C03358B8003369C9013307074133892E41A1
S315000033D0B3B72E013306F740B70780003377F60000
S315000033E0630807249387F7FF337AF600630E0A2AE9
S315000033F013050A00EF10D006130785FF9307000296
S31500003400B387E740B357F9003316EA00B3E7C700BE
S315000034103319E900634C872A3307874013061700E0
S315000034209306F00163CEC61C130700023307C7409C
S31500003430B356C9003319E9003397E7003367D7005D
S31500003440333920013369270133D6C700130400003E
S3150000345093777900638007029377F900130740009A
S31500003460638AE7001307490033392701330626012B
S3150000347013090700B7078000B377F600638E071AB3
S31500003480130414009307F07F6308F420B70780FF46
S315000034909387F7FFB377F6009396D7011359390050
S315000034A093979700B3E6260193D7C7001374F47F6A
S315000034B0131444019399F9013364F400336434011D
S315000034C08320C10193050400032481018324410163
S315000034D0032901018329C100032A810013850600FF
S315000034E013010102678000006380050AB30583406B
S315000034F063120432B367D701638E074A9387F5FFD9
S315000035006380075A9306F07F638AD5529385070036
S315000035106F0040316350B0206304030CB70680008F
S315000035209307F07F3368D800630EF41A930780037D
S3150000353063CCB7129307F00163D2B740138905FE37
S3150000354093070002B3562801638AF5009307000427
S31500003550B385B7403318B800336E0E013339C00156
S315000035603369D9006F00C010B367C801638A072E9C
S315000035709387F5FF638007489306F07F6384D5162B
S31500003580938507006FF01FE19307140093F7E77F19
S31500003590639A0724B367D701B366C801631A044266
S315000035A063800752638006483389CE41B3070741DB
S315000035B033B62E013386C740B7078000B377F600CF
S315000035C0638807583309DE41B307E84033362E01D6
S315000035D0938908003386C740938408006FF05FE73D
S315000035E0B367C801638407429387F5FF638607289C
S315000035F09306F07F6388D50E938507006FF01FF35F
S31500003600130717FE9306000233D7E700630AD600B6
S31500003610930600043386C6403396C7003369C90053
S31500003620333920013369E900130600001304000052
S3150000363093777900E39207E29317D601135939007D
S31500003640B366F90093050400935736001307F07F1D
S315000036506384E50A9397C70093D7C70013F4F57FF1
S31500003660938904006FF0DFE43368C8013339000141
S315000036703309D901B337D9013386E700B70780008C
S31500003680B377F600E38607FA130414009307F07F76
S315000036906316F420938904001304F07F9307000057
S315000036A0930600006FF0DFE013050900EF10405BA2
S315000036B0130785019307F001E3D2E7D4130685FFCC
S315000036C0B317C90013090000E35887D4370680FFF3
S315000036D01306F6FF3304E44033F6C7006FF05FD7F6
S315000036E0639006029317350093D737009316D701D8
S315000036F0B3E6D70093573700B3E7D700E38C07F854
S31500003700930900001304F07FB70708009306000032
S315000037106FF01FDA63800508B3058340631C041E3F
S31500003720B367D701638E073A9387F5FF638807402F
S315000037309306F07F6388D51E938507009307800361
S3150000374063CCB7309307F00163C4B73C930700021C
S31500003750B387B7403319F700B3D6BE00B397FE0060
S315000037603369D900B337F0003357B7003369F9002E
S315000037703308E8003309C901B337C90133860701A5
S31500003780130403006FF09FEF3368C801333900015B
S315000037906FF0DFC39306140093F7E67F6396071C6A
S315000037A0B367D7016316042E63880734B367C8016D
S315000037B0638A07263389CE01B3070701B33ED901D1
S315000037C03386D701B7078000B377F600E38207E6B2
S315000037D0B70780FF9387F7FF3376F60013041000D0
S315000037E06FF01FE53389CE41B3B72E01330607418B
S315000037F0330AF640B7078000B377FA00639E0718CE
S31500003800B3664901E39406BE9307000093040000E3
S315000038106FF05FE4B70680009307F07F3367D70049
S31500003820630EF3209307800363C4B70C9307F0017C
S3150000383063CAB72293070002B387B7403319F7006C
S31500003840B3D6BE00B39EFE003369D900B33ED001A5
S31500003850B357B7003369D9013308F8406F00C00980
S315000038609317350093D737009316D701B3E6D700E1
S31500003870935737006FF09FDD3389CE01B3070701F9
S31500003880B33ED9013386D701B7078000B377F60078
S3150000389013041000E38E07D813042000B70780FF37
S315000038A09387F7FF13571900B377F60013791900BA
S315000038B0336927011397F7013369270113D61700D8
S315000038C06FF01FB9138905FE93070002B35628014E
S315000038D0638AF50093070004B385B7403318B80030
S315000038E0336E0E013339C0013369D9006FF01FAE54
S315000038F03369D7013339200133092E41B3372E01FD
S31500003900938908003306F8401304030093840800E3
S315000039106FF09FACB70680009307F07F3367D70040
S31500003920E31EF3E0931636009317D80193D63600BC
S31500003930B3E6F600935738006FF01FDC93070002DA
S31500003940B387B7403319F800B356BE00331EFE00E6
S315000039503369D900333EC0013358B8003369C90111
S31500003960330707016FF0DFD09307F07FE384F6D2C9
S315000039703386CE01B33ED601B3070701B387D7011D
S31500003980135616001399F7013369C900138406000C
S3150000399013D617006FF0DFC93309DE41B307E840DD
S315000039A033362E0193890800338AC7409384080072
S315000039B06FF0DFA3931636009317D80193D636001F
S315000039C0B3E6F60093840800935738006FF01FC8DB
S315000039D0E39807D0638406189316360093D736000B
S315000039E09316D801B3E6D70093840800935738009E
S315000039F06FF09FD03389CE41B3070741B3BE2E0186
S31500003A003386D741130410006FF01F9D93173500BE
S31500003A1093D637009317D701B3E6F60093573700CE
S31500003A206FF0DFC29317350093D737009316D7018F
S31500003A30B3E6D700935737006FF0DFC19316360011
S31500003A409317D80193D63600B3E6F60093840800A0
S31500003A50935738006FF05FCA3369D70133392001B5
S31500003A606FF05FD1138905FE93060002B357270155
S31500003A70638AD50093060004B385B6403317B700B2
S31500003A80B3EEEE003339D0013369F9006FF0DFE6AB
S31500003A90E38A07E83368C801E31408C66FF09FC4D9
S31500003AA03309DE41B307E84033362E019389080017
S31500003AB03386C74093840800130410006FF0DF912B
S31500003AC0E38406D4931636009317D80193D63600AE
S31500003AD0B3E6F60093840800935738006FF09FB75B
S31500003AE0931636009317D80193D63600B3E6F60040
S31500003AF0935738006FF09FB5931636009317D80189
S31500003B0093D63600B3E6F600935738006FF09FB4AD
S31500003B10938705FE93060002B357F700638AD50024
S31500003B2093060004B385B6403317B700B3EEEE0034
S31500003B303339D0013369F9006FF0DFC33389CE0121
S31500003B40B30707013336C9013386C7006FF0DFD3E9
S31500003B50B366C900E38A06CA6FF09FAD93090000F9
S31500003B601304F07FB70708006FF09F94130101FD5F
S31500003B7013D745012324810223229102232C4101DC
S31500003B80232A510123248101139AC50023261102F9
S31500003B9023202103232E31012328610123267101CD
S31500003BA01377F77F13040500130C060093840600B1
S31500003BB0135ACA0093DAF501630A071A9307F07FCE
S31500003BC06306F71E135BD501131A3A00336A4B01DD
S31500003BD0370B8000336B6A0113193500930917C040
S31500003BE0130530001306100093062000130400008E
S31500003BF0130A000093D744011397C40093F7F77F85
S31500003C00935BC70093D4F401638007121307F07F18
S31500003C10638EE70E13973B00935BDC0133E7EB0003
S31500003C20938717C0B70B8000B36B770193153C00E1
S31500003C30B389F94013070000B3C69A009307F00052
S31500003C4093F6F60F63E48724B7A700009387C76E41
S31500003C50131424003304F40083270400678007004C
S31500003C60938A0400138B0B0013890500130A0700BF
S31500003C70930710006302FA0863000A1C93072000EA
S31500003C806302FA06930730006318FA1A93060000D7
S31500003C909307F07F370A0800130900008320C1024A
S31500003CA00324810293974701B3E747019396F601F0
S31500003CB0B3E7D700832441028329C101032A810186
S31500003CC0832A4101032B0101832BC100032C8100B0
S31500003CD01305090093850700032901021301010357
S31500003CE06780000093860A009307F07F130A00009E
S31500003CF0130900006FF09FFA93860A0093070000ED
S31500003D00130A0000130900006FF05FF9B3E58B0199
S31500003D1093891980639A051013840600930B00009B
S31500003D20130720006FF05FF1B3E58B016386050E84
S31500003D3063800B4A13850B00EF009072930655FFC4
S31500003D409307D001930585FFB387D7403397BB0010
S31500003D50B357FC00B3EBE700B315BC0033073501DE
S31500003D609309373F130700006FF01FED336BAA006E
S31500003D7063040B08630A0A4213050A00EF00506E3B
S31500003D80930755FF130BD001130985FF330BFB4037
S31500003D90331A2A01335B6401336B4B013319240157
S31500003DA01307D0C0B309A7406FF09FE3336BAA0097
S31500003DB063120B02130900001305B00013069000EE
S31500003DC09306A000130480009309F07F130A2000D5
S31500003DD06FF05FE213090500130B0A001305F000EC
S31500003DE01306D0009306E0001304C0009309F07F89
S31500003DF0130A30006FF01FE013090000130570006E
S31500003E001306500093066000130440009309000057
S31500003E10130A10006FF01FDE13040600930B000058
S31500003E20130710006FF05FE11304050093050C0003
S31500003E30130730006FF05FE01387F93F635AE026FF
S31500003E4093777900639607441359390093860A00DD
S31500003E50B7070001B377FB00638A0700B70700FFC7
S31500003E609387F7FF337BFB00138709409307E07FB7
S31500003E70E3CCE7E61316DB01131A9B003369260130
S31500003E80135ACA009377F77F6FF05FE163E06B3BED
S31500003E90630C7B39130609009389F9FF130A0B009B
S31500003EA01309000013978B001358070133530A03B5
S31500003EB093DB8501B3EBEB0093980B0193D80801D4
S31500003EC01355060193958500337B0A0333876802F1
S31500003ED093170B013365F500637EE5003305750125
S31500003EE09307F3FF636475396372E5381303E3FFE1
S31500003EF0330575013305E540335A050313160601EC
S31500003F001356060133750503B387480313150501D8
S31500003F103365A600637EF500330575011307FAFFC6
S31500003F20636275356370F534130AEAFF330575016C
S31500003F3013130301B7020100336B43011383F2FF2E
S31500003F40B37E6B00135F0B0113DE050133F36500CF
S31500003F50B30FD303B307F54033066F0213D70F0130
S31500003F60B30EDE03B38ECE003307D701330FCF0374
S31500003F706374C700330F5F00B70E0100938EFEFF18
S31500003F803376D7011355070113160601B3FEDF0179
S31500003F903307E5013306D60163E4E7266380E726A7
S31500003FA03306C940B387E7403339C900B387274191
S31500003FB01387F93F638AFB18B3DE0703135506011F
S31500003FC0B3F70703338FD80393970701B367F50059
S31500003FD063FEE701B38777011385FEFF63E2772F60
S31500003FE063F0E72F938EEEFFB3877701B387E74140
S31500003FF033D907031316060113560601B3F7070351
S31500004000B3882803939707013366F600637E16018B
S31500004010330676019307F9FF6360762B637E1629D4
S315000040201309E9FF33067601939E0E0133E92E014B
S3150000403013150901935E090113550501330865023D
S31500004040330616413305AE029357080133836E02D9
S3150000405033056500B387A700330EDE0363F66700FA
S3150000406037050100330EAE00B70801009388F8FF4C
S3150000407013D50701B3F71701939707013378180192
S31500004080330EC501B3870701637EC61B3386CB009B
S315000040901305F9FF636C76276366C625630CC6278E
S315000040A01309050013691900938A06006FF01FD9DA
S315000040B093860A00630A070A130A1000330AEA40C5
S315000040C093078003E3CC47C39307F00163DA4725E0
S315000040D0930710FEB387E74013070002B357FB00B0
S315000040E06308EA001387E943331AEB003369490191
S315000040F0333920013369F90013777900130A000078
S31500004100630A071C9377F90013074000938A060099
S31500004110130A0000638AE71A9307490033B9270197
S31500004120330A2A0193860A0013890700B70780001D
S31500004130B377FA00638A071893071000130A000082
S31500004140130900006FF09FB51309000093071000D4
S315000041506340E0161309F0FFE31007F6938A0600A2
S315000041601309F0FF930910C0130A10001387E941E1
S31500004170B317EB00B35649013317E9003337E000B4
S3150000418033E9D7003369E90093777900335A4B0155
S3150000419093860A00E38C07F89377F900130740002B
S315000041A0E39CE7F66FF09FF8EF00902B930755011D
S315000041B01307C001130B050013050502E354F7BCF2
S315000041C0130B8BFF331B6401130900006FF05FBDF7
S315000041D013050C00EF00D028930655019307C00184
S315000041E01307050013050502E3DCD7B4130787FFA1
S315000041F093050000B31BEC006FF05FB6E372C9DAFB
S315000042003309B9003335B90033057501B387A70003
S315000042101305FBFF63F0FB0463E0E706630CF7049A
S31500004220130B05006FF0DFD7E366B9C61355190007
S315000042301316FB01135A1B003366A6001319F90166
S315000042406FF05FC6E310C6E7938A0600E38807BEF1
S315000042506FF0DFE3E396FBFCE370B9FC130B05009C
S315000042606FF01FD4130A07006FF09FCC138307006B
S315000042706FF05FC8E376C9FA3309B9003335B90080
S3150000428033057501130BEBFFB387A7006FF05FD102
S315000042909377F90093064000E388D7BA9337C9FFAE
S315000042A01309490093C717001359390093860A006A
S315000042B0330BFB006FF0DFB9138907006FF0DFD611
S315000042C0930E05006FF09FD293179A001317DA0129
S315000042D013DAC700135939003369E9009307000060
S315000042E06FF0DF9B13951500B335B500B38B7501E1
S315000042F01309E9FF3306760193050500E314C6DBCF
S31500004300938A0600E390B7DA6FF05FB313090500EE
S315000043106FF0DFFEE3E8F5FC130905006FF05FFEC2
S31500004320938A06006FF09FE413D74501B707100084
S315000043309387F7FF93D846011377F77F1303F07F30
S3150000434033FEB70013080500B3F7D700930E050038
S3150000435093D5F501130F060093F8F87F93D6F6016F
S31500004360630C670013051000638668006314170169
S315000043706300FE02678000003363AE001305100081
S31500004380E31A03FEE398E8FEB3E7C700E39407FEEB
S3150000439013051000E390EEFF13050000E38CD5FC37
S315000043A013051000E31807FC33650E013335A00032
S315000043B06780000013D84501B70710009387F7FF01
S315000043C093D846011378F87F1303F07F33FEB700C6
S315000043D013070500930E050093D5F501130F06008C
S315000043E0B3F7D70093F8F87F13D5F6016304680294
S315000043F063886802631E08043367EE00639408044A
S3150000440033E6C700631006041305000063120702B3
S3150000441067800000B366EE00639E0606639A080393
S3150000442033E6C70063180606630C0800638AA50214
S3150000443013051000E38E05FC1305F0FF67800000EE
S315000044403367EE00E31407FEE30805FE678000000D
S31500004450E39E08FC33E6C700E31A06FC6FF05FFD37
S3150000446063C00803E34218FFE3E4C7FD6308FE02E6
S31500004470637EFE00E38205FC13850500678000006D
S31500004480E31C05FA13051000678000001305000001
S31500004490678000001305E0FF67800000E36ADFF92C
S315000044A013050000E3E8EEFD6780000013D8450120
S315000044B0B70710009387F7FF93D846011378F87F64
S315000044C01303F07F33FEB70013070500930E0500B4
S315000044D093D5F501130F0600B3F7D70093F8F87FCD
S315000044E013D5F6016304680263886802631208063E
S315000044F03367EE00639A080233E6C70063160602C6
S31500004500130500006316070267800000B366EE001D
S3150000451063980602639E080333E6C7006312060229
S315000045203367EE006314080063000702638AA5027E
S3150000453013051000E38A05FC1305F0FF67800000F1
S315000045401305200067800000E30805FE6780000071
S31500004550E39E08FC33E6C700E31A06FC6FF05FFD36
S3150000456063D80801E31A05FC1305100067800000F4
S31500004570E34C18FDE3EEC7FB630EFE006378FE0016
S31500004580E38C05FA1385050067800000130500001B
S3150000459067800000E36EDFF913050000E3E2EEFF3B
S315000045A067800000130101FD93D745012324810292
S315000045B023202103232C4101232861012326710195
S315000045C01394C5002326110223229102232E3101C2
S315000045D0232A51012324810193F7F77F130905004C
S315000045E0930B0600138A06001354C40013DBF5016F
S315000045F0638E073A1307F07F638AE73E131734008A
S315000046001354D5013364E400370780003364E400B3
S3150000461093143500938A17C0130630001307100051
S315000046209306200093090000130C000093574A01DB
S315000046301319CA0093F7F77F1359C900135AFA01E1
S31500004640638407321307F07F6386E73C131739004C
S3150000465013D9DB013369E900938717C03707800058
S315000046603369E90093953B00B38AFA00130500000D
S315000046709307F000B3464B0113861A0063EE370B1F
S3150000468037A70000939929001307C772B389E90079
S3150000469083A709006780070093060A001304090030
S315000046A093840500130C0500930720006304FC06A1
S315000046B0930730006308FC06930710006310FC2480
S315000046C0930700001304000093040000939747012A
S315000046D08320C102B3E78700032481029396F60183
S315000046E0B3E7D700032901028329C101032A810107
S315000046F0832A4101032B0101832BC100032C810076
S3150000470013850400938507008324410213010103E6
S31500004710678000009307F07F1304000093040000F5
S315000047206FF0DFFA930600009307F07F3704080066
S31500004730930400006FF09FF9370E01001307FEFF88
S3150000474093D7040193D80501B3F4E400B3F5E5006B
S315000047503387B4023383B7021355070133889802AF
S315000047603308680033050501338F1703637465004A
S31500004770330FCF01B70E01001383FEFF33786500B8
S3150000478093520901337767003379690013180801DA
S31500004790B38324033308E800135505013387270341
S315000047A013DE0301B3849202B384E400B3049E00D3
S315000047B03383570263F4E4003303D301B7090100DE
S315000047C0938EF9FF33F7D401B377D401935F0401D5
S315000047D013170701B3FED301B30ED701B383F50256
S315000047E093D40401338E64003305D5013387F80270
S315000047F013D30301B385BF023307B7003303E300C6
S31500004800B388F8036374B300B3883801370701002F
S315000048101304F7FFB375830013530301B3081301A1
S31500004820B3F38300939505013303F902B38575004D
S3150000483033892F0313540301B387F202B387270189
S31500004840B307F400B38FF20363F42701B38FEF00CD
S31500004850B70201009382F2FF33F757003373530018
S31500004860131707013305E50133076700B33ED5018A
S315000048703307C7013305B5003304D701B335B50097
S3150000488033031401330FB3003334D4013337C70174
S3150000489033678700B335BF0013D40701B33813015C
S315000048A033048700B3E5B8003304B40093149500CD
S315000048B03304F40193577F0113149400B3E4040105
S315000048C03364F400B334900013557501B707000143
S315000048D0B3E4A400131F9F00B377F400B3E4E4012C
S315000048E0638C072C93D7140093F414001317F40168
S315000048F0B3E49700B3E4E400135414001307F63F3F
S315000049006350E01A93F774006380070293F7F4008C
S3150000491093054000638AB70093874400B3B49700B9
S315000049203304940093840700B7070001B377F400BB
S31500004930638A0700B70700FF9387F7FF3374F40015
S31500004940130706409307E07FE3C6E7DC93D73400FE
S315000049509314D40113149400B3E4F4001354C40064
S315000049609377F77F6FF09FD6B3657901638A050C5D
S31500004970630E091813050900EF00802E130755FF73
S315000049809307D001930585FFB387E7403319B90034
S31500004990B3D7FB0033E92701B395BB00B387AA4021
S315000049A0938AD7C0130500006FF09FCCB364A400B0
S315000049B06388040C6308041213050400EF00402A00
S315000049C0130755FF9307D001930485FFB387E7408C
S315000049D033149400B357F90033E48700B3149900F5
S315000049E09307D0C0B38AA7406FF01FC3B364A40077
S315000049F063980406130400001306B0001307900022
S31500004A009306A00093098000930AF07F130C200000
S31500004A106FF0DFC1B3657901938AFA7F639A050265
S31500004A209389060013090000130520006FF05FC488
S31500004A309307200093060B00E31CFCC66FF09FCD86
S31500004A409309070013090000130510006FF05FC2F9
S31500004A509309060093850B00130530006FF05FC1C4
S31500004A60930405001306F0001307D0009306E00038
S31500004A709309C000930AF07F130C30006FF01FBB40
S31500004A80130400001306700013075000930660001D
S31500004A9093094000930A0000130C10006FF01FB931
S31500004AA093051000B385E540631807081306E64131
S31500004AB0B397C4003316C400B3D4B400B337F000C0
S31500004AC0B3649600B3E4F40093F774003354B4006F
S31500004AD06386070C93F7F400130740006398E70A10
S31500004AE06F00C00BEF00C017130755019306C001F6
S31500004AF09307050013050502E3D6E6EC938787FFC7
S31500004B00930400003314F9006FF09FED13850B003A
S31500004B10EF000015130755019306C0019307050022
S31500004B2013050502E3DEE6E4938787FF930500009D
S31500004B303399FB006FF09FE693078003E3C2B7B893
S31500004B409307F001E3D4B7F6930710FEB387E74067
S31500004B5013070002B357F4006388E5001306E64323
S31500004B603314C400B3E48400B3349000B3E4F40017
S31500004B7013F7740013040000630A070493F7F400A4
S31500004B801307400013040000638CE7029387440078
S31500004B90B3B497003304940093840700B7078000EA
S31500004BA0B377F400638E0700930710001304000028
S31500004BB0930400006FF09FB113860A006FF01FD4B4
S31500004BC0931794001317D40113D4C70093D4340059
S31500004BD0B3E4E400930700006FF05FAF93D745019D
S31500004BE0B70610001387F6FF93F7F77F1306E03F2B
S31500004BF03377B70093D5F501635EF6001306D0410F
S31500004C00635EF600370500801345F5FF3385A50082
S31500004C10678000001305000067800000130630431C
S31500004C203306F6401308F0013367D7006350C80215
S31500004C3093063041B387F640B357F7003305F0408B
S31500004C40E39C05FC13850700678000009387D7BEA9
S31500004C50B317F7003355C500B3E7A7006FF01FFE83
S31500004C60B70701006374F5029307F00F13070002FC
S31500004C7063E2A706B7A700009387C7763385A70028
S31500004C80034505003305A74067800000B70700010C
S31500004C906372F502B7A700009387C776135505011F
S31500004CA03385A70003450500130700013305A74018
S31500004CB067800000B7A700009387C7761355850164
S31500004CC03385A70003450500130780003305A74079
S31500004CD067800000B7A700009387C7761355850045
S31500004CE03385A70003450500130780013305A74058
S31500004CF06780000003A541CF678000000000000028
S31500004D0067800000000000000000000000000000B6
S31500004D109387F5FF638205021307F0FF1306000071
S31500004D20930600002320C5002322D5009387F7FFB2
S31500004D3013058500E394E7FE67800000B7B700001F
S31500004D4037B700001386078E9305078E6300B604F7
S31500004D50B7B600009386068E63FAD5029386F6FFF1
S31500004D60B386B64093F6C6FF938646003306D60052
S31500004D701307078E9387078E83A60700938747003E
S31500004D8013074700232ED7FEE398C7FE678000006F
S31500004D9073001000678000009317160093D7170062
S31500004DA01307B0006386E7007300100067800000F9
S31500004DB0130101FE2328210103A901CFB707200013
S31500004DC0232A91003309F90083244900232631015F
S31500004DD0232E1100232C8100938941F1638C040258
S31500004DE093972400B387F90003A40700630E040019
S31500004DF0832784000325C40093850400E780070009
S31500004E0003240400E31604FE2322990083244900A8
S31500004E10E39804FC8320C10103248101832441011A
S31500004E20032901018329C1001301010267800000E3
S31500004E3083A741CF130500009387170023AAF1CE5D
S31500004E4067800000130101FB2324810483A741CF5F
S31500004E5023261104232291046386070C83A701CF1E
S31500004E606396070203A541CAB757000013088100DD
S31500004E709387477913074000930620001306200CFA
S31500004E8093051000EF00D00F23A8A1CE83A7C1CEB3
S31500004E906396070203A541CAB757000013088100AD
S31500004EA09387477913074000930620001306300CBA
S31500004EB093051000EF00D00C23A6A1CE03A781CF47
S31500004EC083A601CF930710001317270013070720A7
S31500004ED01317C7003387E600232007009305100049
S31500004EE013060002139727003387E6002320B70036
S31500004EF093871700E398C7FEB717000093870780CC
S31500004F0073A047309307800073A007308320C10445
S31500004F1003248104832441041305000013010105C1
S31500004F206780000003A541CAB7570000938707E3CF
S31500004F301308000013074000930610001306D00B59
S31500004F4093051000EF00D00383A741CFE39807F045
S31500004F509307100023AAF1CE6FF05FF0130101FF53
S31500004F602324810083A7C1CF232611001305000047
S31500004F706398070203A541CAB7570000130800004B
S31500004F809387477913074000930640001306C00035
S31500004F9093051000EF00C07E23AEA1CE1335150099
S31500004FA08320C100032481001301010167800000F2
S31500004FB0130101FE232C810083A741D0232E11006B
S31500004FC013050000638A07008320C10103248101C1
S31500004FD0130101026780000003A541CAB75700000C
S31500004FE09387477913080100130740009306400092
S31500004FF01306100193051000EF0080789307050053
S3150000500023A2A1D013051000E38007FC034711007B
S315000050108320C1010324810123A0E1D013050000F0
S315000050201301010267800000638A051C630C0626D3
S3150000503003A70500232AB6029357570093F60706DF
S315000050401377F70193F7F70133E7E6002300F6003D
S31500005050A300E60083A70501638207129396070162
S31500005060B3F6F600B708F0FF13F8F70013073000A1
S31500005070B3F616016306E82013D747001317470156
S31500005080B337E000B307F0401347F7FF3377F70075
S315000050902306060183A745012322D6002324E60022
S315000050A0638E070E93960701B3F6F600B708F0FF76
S315000050B013F8F70013073000B3F616016300E81A79
S315000050C013D7470013174701B337E000B307F04083
S315000050D01347F7FF3377F70083A785012328D60008
S315000050E0232AE600230C0601638A070C9396070120
S315000050F0B3F6F600B708F0FF13F8F7001307300011
S31500005100B3F61601630AE81213D7470013174701CF
S31500005110B337E000B307F0401347F7FF3377F700E4
S3150000512083A7C501232ED6002320E6022302060309
S315000051306386070A139707013377F7003708F0FFEE
S3150000514093F6F7009305300033770701638CB60AB0
S3150000515093D7470093974701B335F000B305B040A6
S3150000516093C7F7FFB3F7B7002324E6022326F60218
S315000051702308D6021305000067800000130800000C
S315000051802306060183A745011307000093060000C6
S315000051902322D6002324E600E39607F083A78501A1
S315000051A01307000093060000130800002328D6000A
S315000051B0232AE600230C0601E39A07F283A7C5011A
S315000051C0130700009306000013080000232ED600E4
S315000051D02320E60223020603E39E07F4930700005A
S315000051E013070000930600002324E6022326F60296
S315000051F02308D6021305000067800000130510007F
S315000052006780000093C7F7FFB7051000938505F088
S3150000521093974700B3F7B7001357C7003367E50006
S3150000522093E7F70F2324E6022326F6022308D60285
S31500005230130500006780000013C7F7FFB7071000CB
S3150000524013174700938707F093D6C6003377F70006
S31500005250B366D5001367F70F6FF09FEC13C7F7FF20
S31500005260B707100013174700938707F093D6C600B9
S315000052703377F700B366D5001367F70F6FF0DFE5F6
S3150000528013C7F7FFB707100013174700938707F0F8
S3150000529093D6C6003377F700B366D5001367F70FCA
S315000052A06FF01FDF1305200067800000130101F671
S315000052B0232441092322510923206109232E710742
S315000052C0232C8107232A9107232AD100232E110894
S315000052D0232C8108232A9108232821092326310912
S315000052E02328A1072326B10793F6160023261101CA
S315000052F0930C0500938B0500130C0600930A070018
S31500005300138B0700130A08006384060E37F40F0098
S3150000531033648500630E080C638A05306300063823
S31500005320B714000013890480330924019384F4FF21
S315000053306F00C00013040402630C890A832704006B
S3150000534013D7C7003377970093D78701B3E6E700F3
S31500005350E38206FEE39077FFE31EECFC9305040070
S315000053601306810213850C00EFF01FCC8327C100C2
S3150000537013870A009306100013060C0093850B0092
S3150000538013058102E7000A00E30605FA6F00800DA7
S31500005390B719000093870980330DF4009389F9FF4C
S315000053A083270400930504001306810213D9C7005E
S315000053B093D4870133793901B3E7240113850C00AF
S315000053C01304040263840702EFF01FC68327C1009B
S315000053D013870A009306100013060900938504003C
S315000053E013058102E7000A00631E0506E31AA4FB03
S315000053F003274101B707100093840780137D270018
S31500005400B71D000013774700B3E49C002324E10096
S31500005410938D0D80371700009387F7FFB38DB40186
S315000054209309F7FF232EF10003A304001359C300C9
S315000054301354830133733901630A0D00B3676400A3
S31500005440638C0700638E0B04638C8B0463F66A011E
S3150000545093071000630CF40893840402E396B4FDEA
S31500005460130500008320C10903248109832441090F
S31500005470032901098329C108032A8108832A4108CF
S31500005480032B0108832BC107032C8107832C4107BB
S31500005490032D0107832DC1061301010A6780000051
S315000054A063040C00E3146CFAE3020AFA13068102A1
S315000054B09385040013850C0023286100EFF0DFB606
S315000054C0032301018327C10013870A001306030083
S315000054D0930620009305040013058102E7000A00E5
S315000054E003230101E30405F66FF0DFF793070002DB
S315000054F06302F310B71700009387B7FF3379F900FB
S315000055009307B0046308F90E83278100E38607F446
